{
  "address": "0x2BD33513f67dda221694b48D53090Ac9537b6F51",
  "abi": [
    {
      "inputs": [
        {
          "internalType": "address",
          "name": "_endpoint",
          "type": "address"
        },
        {
          "internalType": "address",
          "name": "_owner",
          "type": "address"
        },
        {
          "components": [
            {
              "internalType": "int16",
              "name": "growthRate",
              "type": "int16"
            }
          ],
          "internalType": "struct Biome[]",
          "name": "_worldmap",
          "type": "tuple[]"
        }
      ],
      "stateMutability": "nonpayable",
      "type": "constructor"
    },
    {
      "inputs": [],
      "name": "InvalidDelegate",
      "type": "error"
    },
    {
      "inputs": [],
      "name": "InvalidEndpointCall",
      "type": "error"
    },
    {
      "inputs": [
        {
          "internalType": "bytes",
          "name": "options",
          "type": "bytes"
        }
      ],
      "name": "InvalidOptions",
      "type": "error"
    },
    {
      "inputs": [],
      "name": "LzTokenUnavailable",
      "type": "error"
    },
    {
      "inputs": [
        {
          "internalType": "uint32",
          "name": "eid",
          "type": "uint32"
        }
      ],
      "name": "NoPeer",
      "type": "error"
    },
    {
      "inputs": [
        {
          "internalType": "uint256",
          "name": "msgValue",
          "type": "uint256"
        }
      ],
      "name": "NotEnoughNative",
      "type": "error"
    },
    {
      "inputs": [
        {
          "internalType": "address",
          "name": "addr",
          "type": "address"
        }
      ],
      "name": "OnlyEndpoint",
      "type": "error"
    },
    {
      "inputs": [
        {
          "internalType": "uint32",
          "name": "eid",
          "type": "uint32"
        },
        {
          "internalType": "bytes32",
          "name": "sender",
          "type": "bytes32"
        }
      ],
      "name": "OnlyPeer",
      "type": "error"
    },
    {
      "inputs": [
        {
          "internalType": "address",
          "name": "owner",
          "type": "address"
        }
      ],
      "name": "OwnableInvalidOwner",
      "type": "error"
    },
    {
      "inputs": [
        {
          "internalType": "address",
          "name": "account",
          "type": "address"
        }
      ],
      "name": "OwnableUnauthorizedAccount",
      "type": "error"
    },
    {
      "inputs": [
        {
          "internalType": "address",
          "name": "token",
          "type": "address"
        }
      ],
      "name": "SafeERC20FailedOperation",
      "type": "error"
    },
    {
      "anonymous": false,
      "inputs": [
        {
          "components": [
            {
              "internalType": "uint32",
              "name": "eid",
              "type": "uint32"
            },
            {
              "internalType": "uint16",
              "name": "msgType",
              "type": "uint16"
            },
            {
              "internalType": "bytes",
              "name": "options",
              "type": "bytes"
            }
          ],
          "indexed": false,
          "internalType": "struct EnforcedOptionParam[]",
          "name": "_enforcedOptions",
          "type": "tuple[]"
        }
      ],
      "name": "EnforcedOptionSet",
      "type": "event"
    },
    {
      "anonymous": false,
      "inputs": [
        {
          "indexed": true,
          "internalType": "address",
          "name": "player",
          "type": "address"
        },
        {
          "components": [
            {
              "internalType": "uint256",
              "name": "position",
              "type": "uint256"
            },
            {
              "internalType": "uint256",
              "name": "population",
              "type": "uint256"
            },
            {
              "internalType": "uint256",
              "name": "timeOfLastMove",
              "type": "uint256"
            }
          ],
          "indexed": false,
          "internalType": "struct Tribe",
          "name": "tribe",
          "type": "tuple"
        }
      ],
      "name": "Helped",
      "type": "event"
    },
    {
      "anonymous": false,
      "inputs": [
        {
          "indexed": true,
          "internalType": "address",
          "name": "previousOwner",
          "type": "address"
        },
        {
          "indexed": true,
          "internalType": "address",
          "name": "newOwner",
          "type": "address"
        }
      ],
      "name": "OwnershipTransferred",
      "type": "event"
    },
    {
      "anonymous": false,
      "inputs": [
        {
          "indexed": false,
          "internalType": "uint32",
          "name": "eid",
          "type": "uint32"
        },
        {
          "indexed": false,
          "internalType": "bytes32",
          "name": "peer",
          "type": "bytes32"
        }
      ],
      "name": "PeerSet",
      "type": "event"
    },
    {
      "anonymous": false,
      "inputs": [
        {
          "indexed": true,
          "internalType": "address",
          "name": "player",
          "type": "address"
        },
        {
          "components": [
            {
              "internalType": "uint256",
              "name": "position",
              "type": "uint256"
            },
            {
              "internalType": "uint256",
              "name": "population",
              "type": "uint256"
            },
            {
              "internalType": "uint256",
              "name": "timeOfLastMove",
              "type": "uint256"
            }
          ],
          "indexed": false,
          "internalType": "struct Tribe",
          "name": "tribe",
          "type": "tuple"
        }
      ],
      "name": "Traveled",
      "type": "event"
    },
    {
      "inputs": [],
      "name": "SEND",
      "outputs": [
        {
          "internalType": "uint16",
          "name": "",
          "type": "uint16"
        }
      ],
      "stateMutability": "view",
      "type": "function"
    },
    {
      "inputs": [
        {
          "internalType": "uint256",
          "name": "currentPopulation",
          "type": "uint256"
        },
        {
          "internalType": "uint256",
          "name": "numberOfPositionForward",
          "type": "uint256"
        }
      ],
      "name": "_computeMovingPopulation",
      "outputs": [
        {
          "internalType": "uint256",
          "name": "",
          "type": "uint256"
        }
      ],
      "stateMutability": "pure",
      "type": "function"
    },
    {
      "inputs": [
        {
          "internalType": "uint256",
          "name": "K",
          "type": "uint256"
        },
        {
          "internalType": "uint256",
          "name": "P0",
          "type": "uint256"
        },
        {
          "internalType": "int256",
          "name": "r",
          "type": "int256"
        },
        {
          "internalType": "uint256",
          "name": "t",
          "type": "uint256"
        }
      ],
      "name": "_computePopulationOverTime",
      "outputs": [
        {
          "internalType": "uint256",
          "name": "",
          "type": "uint256"
        }
      ],
      "stateMutability": "pure",
      "type": "function"
    },
    {
      "inputs": [
        {
          "internalType": "address",
          "name": "player",
          "type": "address"
        }
      ],
      "name": "_isAlive",
      "outputs": [
        {
          "internalType": "bool",
          "name": "",
          "type": "bool"
        }
      ],
      "stateMutability": "view",
      "type": "function"
    },
    {
      "inputs": [
        {
          "components": [
            {
              "internalType": "uint32",
              "name": "srcEid",
              "type": "uint32"
            },
            {
              "internalType": "bytes32",
              "name": "sender",
              "type": "bytes32"
            },
            {
              "internalType": "uint64",
              "name": "nonce",
              "type": "uint64"
            }
          ],
          "internalType": "struct Origin",
          "name": "origin",
          "type": "tuple"
        }
      ],
      "name": "allowInitializePath",
      "outputs": [
        {
          "internalType": "bool",
          "name": "",
          "type": "bool"
        }
      ],
      "stateMutability": "view",
      "type": "function"
    },
    {
      "inputs": [
        {
          "internalType": "uint32",
          "name": "_eid",
          "type": "uint32"
        },
        {
          "internalType": "uint16",
          "name": "_msgType",
          "type": "uint16"
        },
        {
          "internalType": "bytes",
          "name": "_extraOptions",
          "type": "bytes"
        }
      ],
      "name": "combineOptions",
      "outputs": [
        {
          "internalType": "bytes",
          "name": "",
          "type": "bytes"
        }
      ],
      "stateMutability": "view",
      "type": "function"
    },
    {
      "inputs": [
        {
          "internalType": "address",
          "name": "player",
          "type": "address"
        },
        {
          "internalType": "uint256",
          "name": "newPosition",
          "type": "uint256"
        }
      ],
      "name": "computePopulationAfterMove",
      "outputs": [
        {
          "internalType": "uint256",
          "name": "",
          "type": "uint256"
        }
      ],
      "stateMutability": "view",
      "type": "function"
    },
    {
      "inputs": [],
      "name": "endpoint",
      "outputs": [
        {
          "internalType": "contract ILayerZeroEndpointV2",
          "name": "",
          "type": "address"
        }
      ],
      "stateMutability": "view",
      "type": "function"
    },
    {
      "inputs": [
        {
          "internalType": "uint32",
          "name": "eid",
          "type": "uint32"
        },
        {
          "internalType": "uint16",
          "name": "msgType",
          "type": "uint16"
        }
      ],
      "name": "enforcedOptions",
      "outputs": [
        {
          "internalType": "bytes",
          "name": "enforcedOption",
          "type": "bytes"
        }
      ],
      "stateMutability": "view",
      "type": "function"
    },
    {
      "inputs": [
        {
          "components": [
            {
              "internalType": "uint32",
              "name": "srcEid",
              "type": "uint32"
            },
            {
              "internalType": "bytes32",
              "name": "sender",
              "type": "bytes32"
            },
            {
              "internalType": "uint64",
              "name": "nonce",
              "type": "uint64"
            }
          ],
          "internalType": "struct Origin",
          "name": "",
          "type": "tuple"
        },
        {
          "internalType": "bytes",
          "name": "",
          "type": "bytes"
        },
        {
          "internalType": "address",
          "name": "_sender",
          "type": "address"
        }
      ],
      "name": "isComposeMsgSender",
      "outputs": [
        {
          "internalType": "bool",
          "name": "",
          "type": "bool"
        }
      ],
      "stateMutability": "view",
      "type": "function"
    },
    {
      "inputs": [
        {
          "components": [
            {
              "internalType": "uint32",
              "name": "srcEid",
              "type": "uint32"
            },
            {
              "internalType": "bytes32",
              "name": "sender",
              "type": "bytes32"
            },
            {
              "internalType": "uint64",
              "name": "nonce",
              "type": "uint64"
            }
          ],
          "internalType": "struct Origin",
          "name": "_origin",
          "type": "tuple"
        },
        {
          "internalType": "bytes32",
          "name": "_guid",
          "type": "bytes32"
        },
        {
          "internalType": "bytes",
          "name": "_message",
          "type": "bytes"
        },
        {
          "internalType": "address",
          "name": "_executor",
          "type": "address"
        },
        {
          "internalType": "bytes",
          "name": "_extraData",
          "type": "bytes"
        }
      ],
      "name": "lzReceive",
      "outputs": [],
      "stateMutability": "payable",
      "type": "function"
    },
    {
      "inputs": [
        {
          "internalType": "address",
          "name": "player",
          "type": "address"
        },
        {
          "internalType": "uint256",
          "name": "newPosition",
          "type": "uint256"
        }
      ],
      "name": "move",
      "outputs": [],
      "stateMutability": "nonpayable",
      "type": "function"
    },
    {
      "inputs": [
        {
          "internalType": "uint32",
          "name": "",
          "type": "uint32"
        },
        {
          "internalType": "bytes32",
          "name": "",
          "type": "bytes32"
        }
      ],
      "name": "nextNonce",
      "outputs": [
        {
          "internalType": "uint64",
          "name": "nonce",
          "type": "uint64"
        }
      ],
      "stateMutability": "view",
      "type": "function"
    },
    {
      "inputs": [],
      "name": "oAppVersion",
      "outputs": [
        {
          "internalType": "uint64",
          "name": "senderVersion",
          "type": "uint64"
        },
        {
          "internalType": "uint64",
          "name": "receiverVersion",
          "type": "uint64"
        }
      ],
      "stateMutability": "pure",
      "type": "function"
    },
    {
      "inputs": [],
      "name": "owner",
      "outputs": [
        {
          "internalType": "address",
          "name": "",
          "type": "address"
        }
      ],
      "stateMutability": "view",
      "type": "function"
    },
    {
      "inputs": [
        {
          "internalType": "uint32",
          "name": "eid",
          "type": "uint32"
        }
      ],
      "name": "peers",
      "outputs": [
        {
          "internalType": "bytes32",
          "name": "peer",
          "type": "bytes32"
        }
      ],
      "stateMutability": "view",
      "type": "function"
    },
    {
      "inputs": [
        {
          "internalType": "uint32",
          "name": "_dstEid",
          "type": "uint32"
        },
        {
          "internalType": "address",
          "name": "player",
          "type": "address"
        },
        {
          "internalType": "bytes",
          "name": "_options",
          "type": "bytes"
        }
      ],
      "name": "quoteSendHelp",
      "outputs": [
        {
          "components": [
            {
              "internalType": "uint256",
              "name": "nativeFee",
              "type": "uint256"
            },
            {
              "internalType": "uint256",
              "name": "lzTokenFee",
              "type": "uint256"
            }
          ],
          "internalType": "struct MessagingFee",
          "name": "fee",
          "type": "tuple"
        }
      ],
      "stateMutability": "view",
      "type": "function"
    },
    {
      "inputs": [],
      "name": "renounceOwnership",
      "outputs": [],
      "stateMutability": "nonpayable",
      "type": "function"
    },
    {
      "inputs": [
        {
          "internalType": "address",
          "name": "player",
          "type": "address"
        },
        {
          "internalType": "uint32",
          "name": "_dstEid",
          "type": "uint32"
        },
        {
          "internalType": "bytes",
          "name": "_options",
          "type": "bytes"
        }
      ],
      "name": "sendHelp",
      "outputs": [],
      "stateMutability": "payable",
      "type": "function"
    },
    {
      "inputs": [
        {
          "internalType": "address",
          "name": "_delegate",
          "type": "address"
        }
      ],
      "name": "setDelegate",
      "outputs": [],
      "stateMutability": "nonpayable",
      "type": "function"
    },
    {
      "inputs": [
        {
          "components": [
            {
              "internalType": "uint32",
              "name": "eid",
              "type": "uint32"
            },
            {
              "internalType": "uint16",
              "name": "msgType",
              "type": "uint16"
            },
            {
              "internalType": "bytes",
              "name": "options",
              "type": "bytes"
            }
          ],
          "internalType": "struct EnforcedOptionParam[]",
          "name": "_enforcedOptions",
          "type": "tuple[]"
        }
      ],
      "name": "setEnforcedOptions",
      "outputs": [],
      "stateMutability": "nonpayable",
      "type": "function"
    },
    {
      "inputs": [
        {
          "internalType": "uint32",
          "name": "_eid",
          "type": "uint32"
        },
        {
          "internalType": "bytes32",
          "name": "_peer",
          "type": "bytes32"
        }
      ],
      "name": "setPeer",
      "outputs": [],
      "stateMutability": "nonpayable",
      "type": "function"
    },
    {
      "inputs": [
        {
          "internalType": "address",
          "name": "player",
          "type": "address"
        }
      ],
      "name": "start",
      "outputs": [],
      "stateMutability": "nonpayable",
      "type": "function"
    },
    {
      "inputs": [
        {
          "internalType": "address",
          "name": "newOwner",
          "type": "address"
        }
      ],
      "name": "transferOwnership",
      "outputs": [],
      "stateMutability": "nonpayable",
      "type": "function"
    },
    {
      "inputs": [
        {
          "internalType": "address",
          "name": "",
          "type": "address"
        }
      ],
      "name": "tribes",
      "outputs": [
        {
          "internalType": "uint256",
          "name": "position",
          "type": "uint256"
        },
        {
          "internalType": "uint256",
          "name": "population",
          "type": "uint256"
        },
        {
          "internalType": "uint256",
          "name": "timeOfLastMove",
          "type": "uint256"
        }
      ],
      "stateMutability": "view",
      "type": "function"
    },
    {
      "inputs": [
        {
          "internalType": "uint256",
          "name": "",
          "type": "uint256"
        }
      ],
      "name": "worldmap",
      "outputs": [
        {
          "internalType": "int16",
          "name": "growthRate",
          "type": "int16"
        }
      ],
      "stateMutability": "view",
      "type": "function"
    }
  ],
  "transactionHash": "0xa4a8d96a00cfad377623a9491588db486fff0013a646511d45982a4a20242412",
  "args": [
    "0x1a44076050125825900e736c501f859c50fE728c",
    "0x56faA9652E49AA362AaB1e6050Ba9f130e2c460E",
    [
      {
        "growthRate": -25
      },
      {
        "growthRate": -25
      },
      {
        "growthRate": -25
      },
      {
        "growthRate": -25
      },
      {
        "growthRate": -24
      },
      {
        "growthRate": -24
      },
      {
        "growthRate": -24
      },
      {
        "growthRate": -24
      },
      {
        "growthRate": -24
      },
      {
        "growthRate": -24
      },
      {
        "growthRate": 28
      },
      {
        "growthRate": 28
      },
      {
        "growthRate": 28
      },
      {
        "growthRate": 28
      },
      {
        "growthRate": 28
      },
      {
        "growthRate": 28
      },
      {
        "growthRate": 28
      },
      {
        "growthRate": 28
      },
      {
        "growthRate": 27
      },
      {
        "growthRate": 27
      },
      {
        "growthRate": -27
      },
      {
        "growthRate": -28
      },
      {
        "growthRate": -29
      },
      {
        "growthRate": -29
      },
      {
        "growthRate": -30
      },
      {
        "growthRate": -31
      },
      {
        "growthRate": -31
      },
      {
        "growthRate": -32
      },
      {
        "growthRate": -33
      },
      {
        "growthRate": -34
      },
      {
        "growthRate": 22
      },
      {
        "growthRate": 21
      },
      {
        "growthRate": 21
      },
      {
        "growthRate": 20
      },
      {
        "growthRate": 20
      },
      {
        "growthRate": 19
      },
      {
        "growthRate": 19
      },
      {
        "growthRate": 18
      },
      {
        "growthRate": 18
      },
      {
        "growthRate": 17
      },
      {
        "growthRate": -42
      },
      {
        "growthRate": -43
      },
      {
        "growthRate": -43
      },
      {
        "growthRate": -44
      },
      {
        "growthRate": -44
      },
      {
        "growthRate": -45
      },
      {
        "growthRate": -45
      },
      {
        "growthRate": -45
      },
      {
        "growthRate": -46
      },
      {
        "growthRate": -46
      },
      {
        "growthRate": 15
      },
      {
        "growthRate": 15
      },
      {
        "growthRate": 15
      },
      {
        "growthRate": 15
      },
      {
        "growthRate": 15
      },
      {
        "growthRate": 15
      },
      {
        "growthRate": 15
      },
      {
        "growthRate": 16
      },
      {
        "growthRate": 16
      },
      {
        "growthRate": 16
      },
      {
        "growthRate": -46
      },
      {
        "growthRate": -46
      },
      {
        "growthRate": -46
      },
      {
        "growthRate": -46
      },
      {
        "growthRate": -46
      },
      {
        "growthRate": -46
      },
      {
        "growthRate": -46
      },
      {
        "growthRate": -46
      },
      {
        "growthRate": -46
      },
      {
        "growthRate": -46
      },
      {
        "growthRate": 19
      },
      {
        "growthRate": 19
      },
      {
        "growthRate": 19
      },
      {
        "growthRate": 20
      },
      {
        "growthRate": 20
      },
      {
        "growthRate": 20
      },
      {
        "growthRate": 20
      },
      {
        "growthRate": 20
      },
      {
        "growthRate": 19
      },
      {
        "growthRate": 19
      },
      {
        "growthRate": -48
      },
      {
        "growthRate": -48
      },
      {
        "growthRate": -49
      },
      {
        "growthRate": -49
      },
      {
        "growthRate": -50
      },
      {
        "growthRate": -51
      },
      {
        "growthRate": -51
      },
      {
        "growthRate": -52
      },
      {
        "growthRate": -52
      },
      {
        "growthRate": -53
      },
      {
        "growthRate": 16
      },
      {
        "growthRate": 15
      },
      {
        "growthRate": 15
      },
      {
        "growthRate": 14
      },
      {
        "growthRate": 14
      },
      {
        "growthRate": 13
      },
      {
        "growthRate": 13
      },
      {
        "growthRate": 12
      },
      {
        "growthRate": 12
      },
      {
        "growthRate": 11
      },
      {
        "growthRate": -61
      },
      {
        "growthRate": -61
      },
      {
        "growthRate": -62
      },
      {
        "growthRate": -63
      },
      {
        "growthRate": -63
      },
      {
        "growthRate": -64
      },
      {
        "growthRate": -64
      },
      {
        "growthRate": -65
      },
      {
        "growthRate": -65
      },
      {
        "growthRate": -65
      },
      {
        "growthRate": 8
      },
      {
        "growthRate": 8
      },
      {
        "growthRate": 8
      },
      {
        "growthRate": 8
      },
      {
        "growthRate": 8
      },
      {
        "growthRate": 8
      },
      {
        "growthRate": 8
      },
      {
        "growthRate": 8
      },
      {
        "growthRate": 8
      },
      {
        "growthRate": 8
      },
      {
        "growthRate": -67
      },
      {
        "growthRate": -67
      },
      {
        "growthRate": -67
      },
      {
        "growthRate": -67
      },
      {
        "growthRate": -67
      },
      {
        "growthRate": -67
      },
      {
        "growthRate": -67
      },
      {
        "growthRate": -67
      },
      {
        "growthRate": -67
      },
      {
        "growthRate": -67
      },
      {
        "growthRate": 10
      },
      {
        "growthRate": 11
      },
      {
        "growthRate": 11
      },
      {
        "growthRate": 11
      },
      {
        "growthRate": 11
      },
      {
        "growthRate": 11
      },
      {
        "growthRate": 11
      },
      {
        "growthRate": 11
      },
      {
        "growthRate": 11
      },
      {
        "growthRate": 11
      },
      {
        "growthRate": -69
      },
      {
        "growthRate": -69
      },
      {
        "growthRate": -70
      },
      {
        "growthRate": -70
      },
      {
        "growthRate": -71
      },
      {
        "growthRate": -71
      },
      {
        "growthRate": -71
      },
      {
        "growthRate": -72
      },
      {
        "growthRate": -72
      },
      {
        "growthRate": -73
      },
      {
        "growthRate": 9
      },
      {
        "growthRate": 8
      },
      {
        "growthRate": 8
      },
      {
        "growthRate": 7
      },
      {
        "growthRate": 7
      },
      {
        "growthRate": 7
      },
      {
        "growthRate": 6
      },
      {
        "growthRate": 6
      },
      {
        "growthRate": 5
      },
      {
        "growthRate": 5
      },
      {
        "growthRate": -80
      },
      {
        "growthRate": -80
      },
      {
        "growthRate": -81
      },
      {
        "growthRate": -82
      },
      {
        "growthRate": -82
      },
      {
        "growthRate": -83
      },
      {
        "growthRate": -83
      },
      {
        "growthRate": -84
      },
      {
        "growthRate": -84
      },
      {
        "growthRate": -85
      },
      {
        "growthRate": 1
      },
      {
        "growthRate": 1
      },
      {
        "growthRate": 1
      },
      {
        "growthRate": 1
      },
      {
        "growthRate": 1
      },
      {
        "growthRate": 1
      },
      {
        "growthRate": 1
      },
      {
        "growthRate": 1
      },
      {
        "growthRate": 1
      },
      {
        "growthRate": 1
      },
      {
        "growthRate": -88
      },
      {
        "growthRate": -88
      },
      {
        "growthRate": -88
      },
      {
        "growthRate": -88
      },
      {
        "growthRate": -88
      },
      {
        "growthRate": -88
      },
      {
        "growthRate": -88
      },
      {
        "growthRate": -89
      },
      {
        "growthRate": -89
      },
      {
        "growthRate": -89
      },
      {
        "growthRate": 2
      },
      {
        "growthRate": 2
      },
      {
        "growthRate": 2
      },
      {
        "growthRate": 2
      },
      {
        "growthRate": 3
      },
      {
        "growthRate": 3
      },
      {
        "growthRate": 3
      },
      {
        "growthRate": 3
      },
      {
        "growthRate": 3
      },
      {
        "growthRate": 3
      }
    ]
  ],
  "numDeployments": 3,
  "solcInputHash": "36df02c5475b92c6649653fe53c4b029",
  "bytecode": "0x60a06040523480156200001157600080fd5b506040516200250b3803806200250b833981016040819052620000349162000253565b82828181806001600160a01b0381166200006857604051631e4fbdf760e01b81526000600482015260240160405180910390fd5b620000738162000172565b506001600160a01b038083166080528116620000a257604051632d618d8160e21b815260040160405180910390fd5b60805160405163ca5eb5e160e01b81526001600160a01b0383811660048301529091169063ca5eb5e190602401600060405180830381600087803b158015620000ea57600080fd5b505af1158015620000ff573d6000803e3d6000fd5b505050505050505060005b8151811015620001685760048282815181106200012b576200012b6200035e565b60209081029190910181015182546001808201855560009485529290932090519201805461ffff191661ffff90931692909217909155016200010a565b5050505062000374565b600080546001600160a01b038381166001600160a01b0319831681178455604051919092169283917f8be0079c531659141344cd1fd0a4f28419497f9722a3daafe3b4186f6b6457e09190a35050565b80516001600160a01b0381168114620001da57600080fd5b919050565b634e487b7160e01b600052604160045260246000fd5b604051602081016001600160401b03811182821017156200021a576200021a620001df565b60405290565b604051601f8201601f191681016001600160401b03811182821017156200024b576200024b620001df565b604052919050565b6000806000606084860312156200026957600080fd5b6200027484620001c2565b9250602062000285818601620001c2565b60408601519093506001600160401b0380821115620002a357600080fd5b818701915087601f830112620002b857600080fd5b815181811115620002cd57620002cd620001df565b8060051b9150620002e084830162000220565b818152918301840191848101908a841115620002fb57600080fd5b938501935b838510156200034e5785858c0312156200031c57600092508283fd5b62000326620001f5565b925084518060010b81146200033b5760008081fd5b8352828252938501939085019062000300565b8096505050505050509250925092565b634e487b7160e01b600052603260045260246000fd5b608051612151620003ba600039600081816103010152818161059601528181610c7301528181610f7b015281816111f10152818161147d015261153601526121516000f3fe6080604052600436106101815760003560e01c806382413eac116100d1578063bb0b6a531161008a578063d2d9b95611610064578063d2d9b95614610514578063dd0b281e14610534578063f2fde38b14610554578063ff7bd03d1461057457600080fd5b8063bb0b6a53146104a7578063bc70b354146104d4578063ca5eb5e1146104f457600080fd5b806382413eac146103be5780638bebe808146103ee5780638da5cb5b1461040e578063987ff31c1461042c578063b495b23e1461044c578063b98bd0701461048757600080fd5b80633400288b1161013e5780635e280f11116101185780635e280f11146102ef57806365f9f50b1461033b578063715018a61461036e5780637d25a05e1461038357600080fd5b80633400288b146102825780635199ff1d146102a25780635535d461146102c257600080fd5b806313137d651461018657806317442b701461019b5780631a71d65b146101c25780631f5e133414610219578063242d95c614610241578063255163cf1461026f575b600080fd5b610199610194366004611718565b610594565b005b3480156101a757600080fd5b50604080516001815260026020820152015b60405180910390f35b3480156101ce57600080fd5b506101fe6101dd3660046117b7565b60036020526000908152604090208054600182015460029092015490919083565b604080519384526020840192909252908201526060016101b9565b34801561022557600080fd5b5061022e600181565b60405161ffff90911681526020016101b9565b34801561024d57600080fd5b5061026161025c3660046117d4565b610654565b6040519081526020016101b9565b61019961027d366004611819565b61068b565b34801561028e57600080fd5b5061019961029d36600461187b565b61075e565b3480156102ae57600080fd5b506102616102bd366004611897565b610774565b3480156102ce57600080fd5b506102e26102dd3660046118cb565b6107b0565b6040516101b9919061194e565b3480156102fb57600080fd5b506103237f000000000000000000000000000000000000000000000000000000000000000081565b6040516001600160a01b0390911681526020016101b9565b34801561034757600080fd5b5061035b610356366004611961565b610855565b60405160019190910b81526020016101b9565b34801561037a57600080fd5b50610199610879565b34801561038f57600080fd5b506103a661039e36600461187b565b600092915050565b6040516001600160401b0390911681526020016101b9565b3480156103ca57600080fd5b506103de6103d936600461197a565b61088d565b60405190151581526020016101b9565b3480156103fa57600080fd5b506103de6104093660046117b7565b6108a2565b34801561041a57600080fd5b506000546001600160a01b0316610323565b34801561043857600080fd5b506101996104473660046117d4565b610920565b34801561045857600080fd5b5061046c6104673660046119e0565b610a4c565b604080518251815260209283015192810192909252016101b9565b34801561049357600080fd5b506101996104a2366004611a0f565b610a8a565b3480156104b357600080fd5b506102616104c2366004611a83565b60016020526000908152604090205481565b3480156104e057600080fd5b506102e26104ef366004611a9e565b610aa4565b34801561050057600080fd5b5061019961050f3660046117b7565b610c4c565b34801561052057600080fd5b5061026161052f366004611acb565b610cd2565b34801561054057600080fd5b5061019961054f3660046117b7565b610d7e565b34801561056057600080fd5b5061019961056f3660046117b7565b610e40565b34801561058057600080fd5b506103de61058f366004611afd565b610e7e565b7f00000000000000000000000000000000000000000000000000000000000000006001600160a01b031633146105e4576040516391ac5e4f60e01b81523360048201526024015b60405180910390fd5b602087018035906105fe906105f9908a611a83565b610eb4565b1461063c576106106020880188611a83565b60405163309afaf360e21b815263ffffffff9091166004820152602088013560248201526044016105db565b61064b87878787878787610ef0565b50505050505050565b6001600160a01b03821660009081526003602052604081206001810154905461068291906102bd9085611b2f565b90505b92915050565b600061069685610f11565b90506106c684826106aa8760018888610aa4565b6040518060400160405280348152602001600081525033610f48565b506001600160a01b0385166000908152600360205260409020600101546106ef90600290611b58565b6001600160a01b038616600081815260036020908152604091829020600181018590558251815481529182019490945260029093015490830152907f991c542a8e628416214d3773f3c51c1d568411d8386b54c397236123fe5da2819060600160405180910390a25050505050565b610766611053565b6107708282611080565b5050565b600081600003610785575081610685565b8260005b838110156107a85761079e82600460056110d5565b9150600101610789565b509392505050565b6002602090815260009283526040808420909152908252902080546107d490611b7a565b80601f016020809104026020016040519081016040528092919081815260200182805461080090611b7a565b801561084d5780601f106108225761010080835404028352916020019161084d565b820191906000526020600020905b81548152906001019060200180831161083057829003601f168201915b505050505081565b6004818154811061086557600080fd5b60009182526020909120015460010b905081565b610881611053565b61088b600061118b565b565b6001600160a01b03811630145b949350505050565b6001600160a01b03811660009081526003602052604081206001810154905460048054849361091993620186a093919281106108e0576108e0611bae565b60009182526020808320909101546001600160a01b0389168352600390915260409091206002015460019190910b9061052f9042611b2f565b1192915050565b6001600160a01b03821660009081526003602052604090205481116109ad5760405162461bcd60e51b815260206004820152603f60248201527f43616e6e6f74206d6f766520746f206120706f736974696f6e206c657373206f60448201527f7220657175616c20746f207468652063757272656e7420706f736974696f6e0060648201526084016105db565b6001600160a01b0382166000908152600360205260409020818155426002820155600101546109e0906102bd8380611b2f565b6001600160a01b038316600081815260036020908152604091829020600181018590558251815481529182019490945260029093015490830152907fb4fdbe9ea09af31c9db62789db330995e2c5c27af2b59b9e755da617edf99c6b9060600160405180910390a25050565b6040805180820190915260008082526020820152610a8185610a6d86610f11565b610a7a8860018888610aa4565b60006111db565b95945050505050565b610a92611053565b610770610a9f8284611c32565b6112b3565b63ffffffff8416600090815260026020908152604080832061ffff87168452909152812080546060929190610ad890611b7a565b80601f0160208091040260200160405190810160405280929190818152602001828054610b0490611b7a565b8015610b515780601f10610b2657610100808354040283529160200191610b51565b820191906000526020600020905b815481529060010190602001808311610b3457829003601f168201915b505050505090508051600003610ba15783838080601f01602080910402602001604051908101604052809392919081815260200183838082843760009201919091525092945061089a9350505050565b6000839003610bb157905061089a565b60028310610c2f57610bf884848080601f0160208091040260200160405190810160405280939291908181526020018383808284376000920191909152506113c592505050565b80610c068460028188611d57565b604051602001610c1893929190611d81565b60405160208183030381529060405291505061089a565b8383604051639a6d49cd60e01b81526004016105db929190611da9565b610c54611053565b60405163ca5eb5e160e01b81526001600160a01b0382811660048301527f0000000000000000000000000000000000000000000000000000000000000000169063ca5eb5e190602401600060405180830381600087803b158015610cb757600080fd5b505af1158015610ccb573d6000803e3d6000fd5b5050505050565b600081600003610ce357508261089a565b600080841315610d16576000610d028585670de0b6b3a76400006110d5565b9050610d0e8187611dd8565b915050610d61565b6000841215610d5e576000610d3c610d2d86611deb565b85670de0b6b3a76400006110d5565b9050858110610d4e5760009150610d58565b610d0e8187611b2f565b50610d61565b50835b600084138015610d7057508581115b15610a81578591505061089a565b610d87816108a2565b15610dd45760405162461bcd60e51b815260206004820152601760248201527f506c6179657220697320616c726561647920616c69766500000000000000000060448201526064016105db565b6001600160a01b03811660008181526003602090815260408083208381554260028201819055606460019092018290558251948552928401528201527fb4fdbe9ea09af31c9db62789db330995e2c5c27af2b59b9e755da617edf99c6b9060600160405180910390a250565b610e48611053565b6001600160a01b038116610e7257604051631e4fbdf760e01b8152600060048201526024016105db565b610e7b8161118b565b50565b6000602082018035906001908390610e969086611a83565b63ffffffff1681526020810191909152604001600020541492915050565b63ffffffff8116600090815260016020526040812054806106855760405163f6ff4fb760e01b815263ffffffff841660048201526024016105db565b6000610efc86866113f1565b9050610f07816113ff565b5050505050505050565b6001600160a01b03166000908152600360209081526040918290205482518083019190915282518082039092018252820190915290565b610f5061165c565b6000610f5f8460000151611451565b602085015190915015610f7957610f798460200151611479565b7f00000000000000000000000000000000000000000000000000000000000000006001600160a01b0316632637a450826040518060a001604052808b63ffffffff168152602001610fc98c610eb4565b81526020018a815260200189815260200160008960200151111515815250866040518463ffffffff1660e01b8152600401611005929190611e07565b60806040518083038185885af1158015611023573d6000803e3d6000fd5b50505050506040513d601f19601f820116820180604052508101906110489190611ece565b979650505050505050565b6000546001600160a01b0316331461088b5760405163118cdaa760e01b81523360048201526024016105db565b63ffffffff8216600081815260016020908152604091829020849055815192835282018390527f238399d427b947898edb290f5ff0f9109849b1c3ba196a42e35f00c50a54b98b910160405180910390a15050565b60008060006110e4868661155b565b9150915081600003611109578381816110ff576110ff611b42565b0492505050611184565b818411611120576111206003851502601118611579565b6000848688096000868103871696879004966002600389028118808a02820302808a02820302808a02820302808a02820302808a02820302808a02909103029181900381900460010185841190960395909502919093039390930492909217029150505b9392505050565b600080546001600160a01b038381166001600160a01b0319831681178455604051919092169283917f8be0079c531659141344cd1fd0a4f28419497f9722a3daafe3b4186f6b6457e09190a35050565b60408051808201909152600080825260208201527f00000000000000000000000000000000000000000000000000000000000000006001600160a01b031663ddc28c586040518060a001604052808863ffffffff16815260200161123e89610eb4565b8152602001878152602001868152602001851515815250306040518363ffffffff1660e01b8152600401611273929190611e07565b6040805180830381865afa15801561128f573d6000803e3d6000fd5b505050506040513d601f19601f82011682018060405250810190610a819190611f24565b60005b815181101561138a576112e58282815181106112d4576112d4611bae565b6020026020010151604001516113c5565b8181815181106112f7576112f7611bae565b6020026020010151604001516002600084848151811061131957611319611bae565b60200260200101516000015163ffffffff1663ffffffff168152602001908152602001600020600084848151811061135357611353611bae565b60200260200101516020015161ffff1661ffff16815260200190815260200160002090816113819190611f91565b506001016112b6565b507fbe4864a8e820971c0247f5992e2da559595f7bf076a21cb5928d443d2a13b674816040516113ba9190612050565b60405180910390a150565b600281015161ffff81166003146107705781604051639a6d49cd60e01b81526004016105db919061194e565b600061068282840184611961565b60056004828154811061141457611414611bae565b60009182526020822001805490919061143190849060010b6120db565b92506101000a81548161ffff021916908360010b61ffff16021790555050565b6000813414611475576040516304fb820960e51b81523460048201526024016105db565b5090565b60007f00000000000000000000000000000000000000000000000000000000000000006001600160a01b031663e4fe1d946040518163ffffffff1660e01b8152600401602060405180830381865afa1580156114d9573d6000803e3d6000fd5b505050506040513d601f19601f820116820180604052508101906114fd91906120fe565b90506001600160a01b038116611526576040516329b99a9560e11b815260040160405180910390fd5b6107706001600160a01b038216337f00000000000000000000000000000000000000000000000000000000000000008561158b565b60008060001983850993909202808410938190039390930393915050565b634e487b71600052806020526024601cfd5b604080516001600160a01b0385811660248301528416604482015260648082018490528251808303909101815260849091019091526020810180516001600160e01b03166323b872dd60e01b1790526115e59085906115eb565b50505050565b600080602060008451602086016000885af18061160e576040513d6000823e3d81fd5b50506000513d91508115611626578060011415611633565b6001600160a01b0384163b155b156115e557604051635274afe760e01b81526001600160a01b03851660048201526024016105db565b60405180606001604052806000801916815260200160006001600160401b0316815260200161169e604051806040016040528060008152602001600081525090565b905290565b6000606082840312156116b557600080fd5b50919050565b60008083601f8401126116cd57600080fd5b5081356001600160401b038111156116e457600080fd5b6020830191508360208285010111156116fc57600080fd5b9250929050565b6001600160a01b0381168114610e7b57600080fd5b600080600080600080600060e0888a03121561173357600080fd5b61173d89896116a3565b96506060880135955060808801356001600160401b038082111561176057600080fd5b61176c8b838c016116bb565b909750955060a08a0135915061178182611703565b90935060c0890135908082111561179757600080fd5b506117a48a828b016116bb565b989b979a50959850939692959293505050565b6000602082840312156117c957600080fd5b813561118481611703565b600080604083850312156117e757600080fd5b82356117f281611703565b946020939093013593505050565b803563ffffffff8116811461181457600080fd5b919050565b6000806000806060858703121561182f57600080fd5b843561183a81611703565b935061184860208601611800565b925060408501356001600160401b0381111561186357600080fd5b61186f878288016116bb565b95989497509550505050565b6000806040838503121561188e57600080fd5b6117f283611800565b600080604083850312156118aa57600080fd5b50508035926020909101359150565b803561ffff8116811461181457600080fd5b600080604083850312156118de57600080fd5b6118e783611800565b91506118f5602084016118b9565b90509250929050565b60005b83811015611919578181015183820152602001611901565b50506000910152565b6000815180845261193a8160208601602086016118fe565b601f01601f19169290920160200192915050565b6020815260006106826020830184611922565b60006020828403121561197357600080fd5b5035919050565b60008060008060a0858703121561199057600080fd5b61199a86866116a3565b935060608501356001600160401b038111156119b557600080fd5b6119c1878288016116bb565b90945092505060808501356119d581611703565b939692955090935050565b600080600080606085870312156119f657600080fd5b6119ff85611800565b9350602085013561184881611703565b60008060208385031215611a2257600080fd5b82356001600160401b0380821115611a3957600080fd5b818501915085601f830112611a4d57600080fd5b813581811115611a5c57600080fd5b8660208260051b8501011115611a7157600080fd5b60209290920196919550909350505050565b600060208284031215611a9557600080fd5b61068282611800565b60008060008060608587031215611ab457600080fd5b611abd85611800565b9350611848602086016118b9565b60008060008060808587031215611ae157600080fd5b5050823594602084013594506040840135936060013592509050565b600060608284031215611b0f57600080fd5b61068283836116a3565b634e487b7160e01b600052601160045260246000fd5b8181038181111561068557610685611b19565b634e487b7160e01b600052601260045260246000fd5b600082611b7557634e487b7160e01b600052601260045260246000fd5b500490565b600181811c90821680611b8e57607f821691505b6020821081036116b557634e487b7160e01b600052602260045260246000fd5b634e487b7160e01b600052603260045260246000fd5b634e487b7160e01b600052604160045260246000fd5b604051606081016001600160401b0381118282101715611bfc57611bfc611bc4565b60405290565b604051601f8201601f191681016001600160401b0381118282101715611c2a57611c2a611bc4565b604052919050565b60006001600160401b0380841115611c4c57611c4c611bc4565b8360051b6020611c5d818301611c02565b868152918501918181019036841115611c7557600080fd5b865b84811015611d4b57803586811115611c8f5760008081fd5b88016060368290031215611ca35760008081fd5b611cab611bda565b611cb482611800565b8152611cc18683016118b9565b8682015260408083013589811115611cd95760008081fd5b9290920191601f3681850112611cef5760008081fd5b83358a811115611d0157611d01611bc4565b611d12818301601f19168a01611c02565b91508082523689828701011115611d295760008081fd5b808986018a840137600090820189015290820152845250918301918301611c77565b50979650505050505050565b60008085851115611d6757600080fd5b83861115611d7457600080fd5b5050820193919092039150565b60008451611d938184602089016118fe565b8201838582376000930192835250909392505050565b60208152816020820152818360408301376000818301604090810191909152601f909201601f19160101919050565b8082018082111561068557610685611b19565b6000600160ff1b8201611e0057611e00611b19565b5060000390565b6040815263ffffffff8351166040820152602083015160608201526000604084015160a06080840152611e3d60e0840182611922565b90506060850151603f198483030160a0850152611e5a8282611922565b60809690960151151560c08501525050506001600160a01b039190911660209091015290565b600060408284031215611e9257600080fd5b604051604081018181106001600160401b0382111715611eb457611eb4611bc4565b604052825181526020928301519281019290925250919050565b600060808284031215611ee057600080fd5b611ee8611bda565b8251815260208301516001600160401b0381168114611f0657600080fd5b6020820152611f188460408501611e80565b60408201529392505050565b600060408284031215611f3657600080fd5b6106828383611e80565b601f821115611f8c576000816000526020600020601f850160051c81016020861015611f695750805b601f850160051c820191505b81811015611f8857828155600101611f75565b5050505b505050565b81516001600160401b03811115611faa57611faa611bc4565b611fbe81611fb88454611b7a565b84611f40565b602080601f831160018114611ff35760008415611fdb5750858301515b600019600386901b1c1916600185901b178555611f88565b600085815260208120601f198616915b8281101561202257888601518255948401946001909101908401612003565b50858210156120405787850151600019600388901b60f8161c191681555b5050505050600190811b01905550565b600060208083018184528085518083526040925060408601915060408160051b87010184880160005b838110156120cd57888303603f190185528151805163ffffffff1684528781015161ffff168885015286015160608785018190526120b981860183611922565b968901969450505090860190600101612079565b509098975050505050505050565b600181810b9083900b01617fff8113617fff198212171561068557610685611b19565b60006020828403121561211057600080fd5b81516111848161170356fea2646970667358221220d66fa3283944bbf3c3794ce6be1066d324f813efbdda1bb6df475480cab36dae64736f6c63430008160033",
  "devdoc": {
    "errors": {
      "OwnableInvalidOwner(address)": [
        {
          "details": "The owner is not a valid owner account. (eg. `address(0)`)"
        }
      ],
      "OwnableUnauthorizedAccount(address)": [
        {
          "details": "The caller account is not authorized to perform an operation."
        }
      ],
      "SafeERC20FailedOperation(address)": [
        {
          "details": "An operation with an ERC-20 token failed."
        }
      ]
    },
    "kind": "dev",
    "methods": {
      "allowInitializePath((uint32,bytes32,uint64))": {
        "details": "This indicates to the endpoint that the OApp has enabled msgs for this particular path to be received.This defaults to assuming if a peer has been set, its initialized. Can be overridden by the OApp if there is other logic to determine this.",
        "params": {
          "origin": "The origin information containing the source endpoint and sender address."
        },
        "returns": {
          "_0": "Whether the path has been initialized."
        }
      },
      "combineOptions(uint32,uint16,bytes)": {
        "details": "If there is an enforced lzReceive option: - {gasLimit: 200k, msg.value: 1 ether} AND a caller supplies a lzReceive option: {gasLimit: 100k, msg.value: 0.5 ether} - The resulting options will be {gasLimit: 300k, msg.value: 1.5 ether} when the message is executed on the remote lzReceive() function.This presence of duplicated options is handled off-chain in the verifier/executor.",
        "params": {
          "_eid": "The endpoint ID.",
          "_extraOptions": "Additional options passed by the caller.",
          "_msgType": "The OAPP message type."
        },
        "returns": {
          "_0": "options The combination of caller specified options AND enforced options."
        }
      },
      "constructor": {
        "params": {
          "_endpoint": "The local chain's LayerZero Endpoint V2 address",
          "_owner": "The address permitted to configure this OApp",
          "_worldmap": "The map of biomes"
        }
      },
      "isComposeMsgSender((uint32,bytes32,uint64),bytes,address)": {
        "details": "_origin The origin information containing the source endpoint and sender address.  - srcEid: The source chain endpoint ID.  - sender: The sender address on the src chain.  - nonce: The nonce of the message._message The lzReceive payload.Applications can optionally choose to implement separate composeMsg senders that are NOT the bridging layer.The default sender IS the OAppReceiver implementer.",
        "params": {
          "_sender": "The sender address."
        },
        "returns": {
          "_0": "isSender Is a valid sender."
        }
      },
      "lzReceive((uint32,bytes32,uint64),bytes32,bytes,address,bytes)": {
        "details": "Entry point for receiving messages or packets from the endpoint.Entry point for receiving msg/packet from the LayerZero endpoint.",
        "params": {
          "_executor": "The address of the executor for the received message.",
          "_extraData": "Additional arbitrary data provided by the corresponding executor.",
          "_guid": "The unique identifier for the received LayerZero message.",
          "_message": "The payload of the received message.",
          "_origin": "The origin information containing the source endpoint and sender address.  - srcEid: The source chain endpoint ID.  - sender: The sender address on the src chain.  - nonce: The nonce of the message."
        }
      },
      "nextNonce(uint32,bytes32)": {
        "details": "_srcEid The source endpoint ID._sender The sender address.The path nonce starts from 1. If 0 is returned it means that there is NO nonce ordered enforcement.Is required by the off-chain executor to determine the OApp expects msg execution is ordered.This is also enforced by the OApp.By default this is NOT enabled. ie. nextNonce is hardcoded to return 0.",
        "returns": {
          "nonce": "The next nonce."
        }
      },
      "oAppVersion()": {
        "returns": {
          "receiverVersion": "The version of the OAppReceiver.sol implementation.",
          "senderVersion": "The version of the OAppSender.sol implementation."
        }
      },
      "owner()": {
        "details": "Returns the address of the current owner."
      },
      "quoteSendHelp(uint32,address,bytes)": {
        "params": {
          "_dstEid": "Destination chain's endpoint ID.",
          "_options": "Message execution options (e.g., for sending gas to destination).",
          "player": "The player to send help to."
        },
        "returns": {
          "fee": "A `MessagingFee` struct containing the calculated gas fee in either the native token or ZRO token."
        }
      },
      "renounceOwnership()": {
        "details": "Leaves the contract without owner. It will not be possible to call `onlyOwner` functions. Can only be called by the current owner. NOTE: Renouncing ownership will leave the contract without an owner, thereby disabling any functionality that is only available to the owner."
      },
      "sendHelp(address,uint32,bytes)": {
        "params": {
          "_dstEid": "Destination Endpoint ID (uint32)",
          "_options": "Execution options for gas on the destination (bytes)"
        }
      },
      "setDelegate(address)": {
        "details": "Only the owner/admin of the OApp can call this function.Provides the ability for a delegate to set configs, on behalf of the OApp, directly on the Endpoint contract.",
        "params": {
          "_delegate": "The address of the delegate to be set."
        }
      },
      "setEnforcedOptions((uint32,uint16,bytes)[])": {
        "details": "Sets the enforced options for specific endpoint and message type combinations.Only the owner/admin of the OApp can call this function.Provides a way for the OApp to enforce things like paying for PreCrime, AND/OR minimum dst lzReceive gas amounts etc.These enforced options can vary as the potential options/execution on the remote may differ as per the msgType. eg. Amount of lzReceive() gas necessary to deliver a lzCompose() message adds overhead you dont want to pay if you are only making a standard LayerZero message ie. lzReceive() WITHOUT sendCompose().",
        "params": {
          "_enforcedOptions": "An array of EnforcedOptionParam structures specifying enforced options."
        }
      },
      "setPeer(uint32,bytes32)": {
        "details": "Only the owner/admin of the OApp can call this function.Indicates that the peer is trusted to send LayerZero messages to this OApp.Set this to bytes32(0) to remove the peer address.Peer is a bytes32 to accommodate non-evm chains.",
        "params": {
          "_eid": "The endpoint ID.",
          "_peer": "The address of the peer to be associated with the corresponding endpoint."
        }
      },
      "transferOwnership(address)": {
        "details": "Transfers ownership of the contract to a new account (`newOwner`). Can only be called by the current owner."
      }
    },
    "version": 1
  },
  "userdoc": {
    "kind": "user",
    "methods": {
      "SEND()": {
        "notice": "Msg type for sending a string, for use in OAppOptionsType3 as an enforced option"
      },
      "allowInitializePath((uint32,bytes32,uint64))": {
        "notice": "Checks if the path initialization is allowed based on the provided origin."
      },
      "combineOptions(uint32,uint16,bytes)": {
        "notice": "Combines options for a given endpoint and message type."
      },
      "constructor": {
        "notice": "Initialize with Endpoint V2 and owner address"
      },
      "endpoint()": {
        "notice": "Retrieves the LayerZero endpoint associated with the OApp."
      },
      "isComposeMsgSender((uint32,bytes32,uint64),bytes,address)": {
        "notice": "Indicates whether an address is an approved composeMsg sender to the Endpoint."
      },
      "nextNonce(uint32,bytes32)": {
        "notice": "Retrieves the next nonce for a given source endpoint and sender address."
      },
      "oAppVersion()": {
        "notice": "Retrieves the OApp version information."
      },
      "peers(uint32)": {
        "notice": "Retrieves the peer (OApp) associated with a corresponding endpoint."
      },
      "quoteSendHelp(uint32,address,bytes)": {
        "notice": "Quotes the gas needed to pay for the full omnichain transaction in native gas or ZRO token."
      },
      "sendHelp(address,uint32,bytes)": {
        "notice": "Send a string to a remote OApp on another chain"
      },
      "setDelegate(address)": {
        "notice": "Sets the delegate address for the OApp."
      },
      "setPeer(uint32,bytes32)": {
        "notice": "Sets the peer address (OApp instance) for a corresponding endpoint."
      }
    },
    "version": 1
  },
  "storageLayout": {
    "storage": [
      {
        "astId": 1533,
        "contract": "contracts/ChainWalkerWorld.sol:ChainWalkerWorld",
        "label": "_owner",
        "offset": 0,
        "slot": "0",
        "type": "t_address"
      },
      {
        "astId": 785,
        "contract": "contracts/ChainWalkerWorld.sol:ChainWalkerWorld",
        "label": "peers",
        "offset": 0,
        "slot": "1",
        "type": "t_mapping(t_uint32,t_bytes32)"
      },
      {
        "astId": 1381,
        "contract": "contracts/ChainWalkerWorld.sol:ChainWalkerWorld",
        "label": "enforcedOptions",
        "offset": 0,
        "slot": "2",
        "type": "t_mapping(t_uint32,t_mapping(t_uint16,t_bytes_storage))"
      },
      {
        "astId": 5817,
        "contract": "contracts/ChainWalkerWorld.sol:ChainWalkerWorld",
        "label": "tribes",
        "offset": 0,
        "slot": "3",
        "type": "t_mapping(t_address,t_struct(Tribe)5803_storage)"
      },
      {
        "astId": 5835,
        "contract": "contracts/ChainWalkerWorld.sol:ChainWalkerWorld",
        "label": "worldmap",
        "offset": 0,
        "slot": "4",
        "type": "t_array(t_struct(Biome)5806_storage)dyn_storage"
      }
    ],
    "types": {
      "t_address": {
        "encoding": "inplace",
        "label": "address",
        "numberOfBytes": "20"
      },
      "t_array(t_struct(Biome)5806_storage)dyn_storage": {
        "base": "t_struct(Biome)5806_storage",
        "encoding": "dynamic_array",
        "label": "struct Biome[]",
        "numberOfBytes": "32"
      },
      "t_bytes32": {
        "encoding": "inplace",
        "label": "bytes32",
        "numberOfBytes": "32"
      },
      "t_bytes_storage": {
        "encoding": "bytes",
        "label": "bytes",
        "numberOfBytes": "32"
      },
      "t_int16": {
        "encoding": "inplace",
        "label": "int16",
        "numberOfBytes": "2"
      },
      "t_mapping(t_address,t_struct(Tribe)5803_storage)": {
        "encoding": "mapping",
        "key": "t_address",
        "label": "mapping(address => struct Tribe)",
        "numberOfBytes": "32",
        "value": "t_struct(Tribe)5803_storage"
      },
      "t_mapping(t_uint16,t_bytes_storage)": {
        "encoding": "mapping",
        "key": "t_uint16",
        "label": "mapping(uint16 => bytes)",
        "numberOfBytes": "32",
        "value": "t_bytes_storage"
      },
      "t_mapping(t_uint32,t_bytes32)": {
        "encoding": "mapping",
        "key": "t_uint32",
        "label": "mapping(uint32 => bytes32)",
        "numberOfBytes": "32",
        "value": "t_bytes32"
      },
      "t_mapping(t_uint32,t_mapping(t_uint16,t_bytes_storage))": {
        "encoding": "mapping",
        "key": "t_uint32",
        "label": "mapping(uint32 => mapping(uint16 => bytes))",
        "numberOfBytes": "32",
        "value": "t_mapping(t_uint16,t_bytes_storage)"
      },
      "t_struct(Biome)5806_storage": {
        "encoding": "inplace",
        "label": "struct Biome",
        "members": [
          {
            "astId": 5805,
            "contract": "contracts/ChainWalkerWorld.sol:ChainWalkerWorld",
            "label": "growthRate",
            "offset": 0,
            "slot": "0",
            "type": "t_int16"
          }
        ],
        "numberOfBytes": "32"
      },
      "t_struct(Tribe)5803_storage": {
        "encoding": "inplace",
        "label": "struct Tribe",
        "members": [
          {
            "astId": 5798,
            "contract": "contracts/ChainWalkerWorld.sol:ChainWalkerWorld",
            "label": "position",
            "offset": 0,
            "slot": "0",
            "type": "t_uint256"
          },
          {
            "astId": 5800,
            "contract": "contracts/ChainWalkerWorld.sol:ChainWalkerWorld",
            "label": "population",
            "offset": 0,
            "slot": "1",
            "type": "t_uint256"
          },
          {
            "astId": 5802,
            "contract": "contracts/ChainWalkerWorld.sol:ChainWalkerWorld",
            "label": "timeOfLastMove",
            "offset": 0,
            "slot": "2",
            "type": "t_uint256"
          }
        ],
        "numberOfBytes": "96"
      },
      "t_uint16": {
        "encoding": "inplace",
        "label": "uint16",
        "numberOfBytes": "2"
      },
      "t_uint256": {
        "encoding": "inplace",
        "label": "uint256",
        "numberOfBytes": "32"
      },
      "t_uint32": {
        "encoding": "inplace",
        "label": "uint32",
        "numberOfBytes": "4"
      }
    }
  }
}