{
  "address": "0xf87e378AAb32D9c58970A8A358F7670E9F09b7b8",
  "abi": [
    {
      "inputs": [
        {
          "internalType": "address",
          "name": "_endpoint",
          "type": "address"
        },
        {
          "internalType": "address",
          "name": "_owner",
          "type": "address"
        },
        {
          "components": [
            {
              "internalType": "int16",
              "name": "growthRate",
              "type": "int16"
            }
          ],
          "internalType": "struct Biome[]",
          "name": "_worldmap",
          "type": "tuple[]"
        }
      ],
      "stateMutability": "nonpayable",
      "type": "constructor"
    },
    {
      "inputs": [],
      "name": "InvalidDelegate",
      "type": "error"
    },
    {
      "inputs": [],
      "name": "InvalidEndpointCall",
      "type": "error"
    },
    {
      "inputs": [
        {
          "internalType": "bytes",
          "name": "options",
          "type": "bytes"
        }
      ],
      "name": "InvalidOptions",
      "type": "error"
    },
    {
      "inputs": [],
      "name": "LzTokenUnavailable",
      "type": "error"
    },
    {
      "inputs": [
        {
          "internalType": "uint32",
          "name": "eid",
          "type": "uint32"
        }
      ],
      "name": "NoPeer",
      "type": "error"
    },
    {
      "inputs": [
        {
          "internalType": "uint256",
          "name": "msgValue",
          "type": "uint256"
        }
      ],
      "name": "NotEnoughNative",
      "type": "error"
    },
    {
      "inputs": [
        {
          "internalType": "address",
          "name": "addr",
          "type": "address"
        }
      ],
      "name": "OnlyEndpoint",
      "type": "error"
    },
    {
      "inputs": [
        {
          "internalType": "uint32",
          "name": "eid",
          "type": "uint32"
        },
        {
          "internalType": "bytes32",
          "name": "sender",
          "type": "bytes32"
        }
      ],
      "name": "OnlyPeer",
      "type": "error"
    },
    {
      "inputs": [
        {
          "internalType": "address",
          "name": "owner",
          "type": "address"
        }
      ],
      "name": "OwnableInvalidOwner",
      "type": "error"
    },
    {
      "inputs": [
        {
          "internalType": "address",
          "name": "account",
          "type": "address"
        }
      ],
      "name": "OwnableUnauthorizedAccount",
      "type": "error"
    },
    {
      "inputs": [
        {
          "internalType": "address",
          "name": "token",
          "type": "address"
        }
      ],
      "name": "SafeERC20FailedOperation",
      "type": "error"
    },
    {
      "anonymous": false,
      "inputs": [
        {
          "indexed": true,
          "internalType": "uint256",
          "name": "startIndex",
          "type": "uint256"
        },
        {
          "components": [
            {
              "internalType": "int16",
              "name": "growthRate",
              "type": "int16"
            }
          ],
          "indexed": false,
          "internalType": "struct Biome[]",
          "name": "biomes",
          "type": "tuple[]"
        }
      ],
      "name": "BiomeRange",
      "type": "event"
    },
    {
      "anonymous": false,
      "inputs": [
        {
          "components": [
            {
              "internalType": "uint32",
              "name": "eid",
              "type": "uint32"
            },
            {
              "internalType": "uint16",
              "name": "msgType",
              "type": "uint16"
            },
            {
              "internalType": "bytes",
              "name": "options",
              "type": "bytes"
            }
          ],
          "indexed": false,
          "internalType": "struct EnforcedOptionParam[]",
          "name": "_enforcedOptions",
          "type": "tuple[]"
        }
      ],
      "name": "EnforcedOptionSet",
      "type": "event"
    },
    {
      "anonymous": false,
      "inputs": [
        {
          "indexed": true,
          "internalType": "uint256",
          "name": "biomePosition",
          "type": "uint256"
        },
        {
          "indexed": true,
          "internalType": "int16",
          "name": "newGrowthRate",
          "type": "int16"
        }
      ],
      "name": "HelpReceived",
      "type": "event"
    },
    {
      "anonymous": false,
      "inputs": [
        {
          "indexed": true,
          "internalType": "address",
          "name": "player",
          "type": "address"
        },
        {
          "components": [
            {
              "internalType": "uint256",
              "name": "position",
              "type": "uint256"
            },
            {
              "internalType": "uint256",
              "name": "population",
              "type": "uint256"
            },
            {
              "internalType": "uint256",
              "name": "timeOfLastMove",
              "type": "uint256"
            }
          ],
          "indexed": false,
          "internalType": "struct Tribe",
          "name": "tribe",
          "type": "tuple"
        }
      ],
      "name": "HelpSent",
      "type": "event"
    },
    {
      "anonymous": false,
      "inputs": [
        {
          "indexed": true,
          "internalType": "address",
          "name": "previousOwner",
          "type": "address"
        },
        {
          "indexed": true,
          "internalType": "address",
          "name": "newOwner",
          "type": "address"
        }
      ],
      "name": "OwnershipTransferred",
      "type": "event"
    },
    {
      "anonymous": false,
      "inputs": [
        {
          "indexed": false,
          "internalType": "uint32",
          "name": "eid",
          "type": "uint32"
        },
        {
          "indexed": false,
          "internalType": "bytes32",
          "name": "peer",
          "type": "bytes32"
        }
      ],
      "name": "PeerSet",
      "type": "event"
    },
    {
      "anonymous": false,
      "inputs": [
        {
          "indexed": true,
          "internalType": "address",
          "name": "player",
          "type": "address"
        },
        {
          "components": [
            {
              "internalType": "uint256",
              "name": "position",
              "type": "uint256"
            },
            {
              "internalType": "uint256",
              "name": "population",
              "type": "uint256"
            },
            {
              "internalType": "uint256",
              "name": "timeOfLastMove",
              "type": "uint256"
            }
          ],
          "indexed": false,
          "internalType": "struct Tribe",
          "name": "tribe",
          "type": "tuple"
        }
      ],
      "name": "Traveled",
      "type": "event"
    },
    {
      "inputs": [],
      "name": "SEND",
      "outputs": [
        {
          "internalType": "uint16",
          "name": "",
          "type": "uint16"
        }
      ],
      "stateMutability": "view",
      "type": "function"
    },
    {
      "inputs": [
        {
          "internalType": "uint256",
          "name": "currentPopulation",
          "type": "uint256"
        },
        {
          "internalType": "uint256",
          "name": "numberOfPositionForward",
          "type": "uint256"
        }
      ],
      "name": "_computeMovingPopulation",
      "outputs": [
        {
          "internalType": "uint256",
          "name": "",
          "type": "uint256"
        }
      ],
      "stateMutability": "pure",
      "type": "function"
    },
    {
      "inputs": [
        {
          "internalType": "uint256",
          "name": "K",
          "type": "uint256"
        },
        {
          "internalType": "uint256",
          "name": "P0",
          "type": "uint256"
        },
        {
          "internalType": "int256",
          "name": "r",
          "type": "int256"
        },
        {
          "internalType": "uint256",
          "name": "t",
          "type": "uint256"
        }
      ],
      "name": "_computePopulationOverTime",
      "outputs": [
        {
          "internalType": "uint256",
          "name": "",
          "type": "uint256"
        }
      ],
      "stateMutability": "pure",
      "type": "function"
    },
    {
      "inputs": [
        {
          "internalType": "address",
          "name": "player",
          "type": "address"
        }
      ],
      "name": "_isAlive",
      "outputs": [
        {
          "internalType": "bool",
          "name": "",
          "type": "bool"
        }
      ],
      "stateMutability": "view",
      "type": "function"
    },
    {
      "inputs": [
        {
          "components": [
            {
              "internalType": "uint32",
              "name": "srcEid",
              "type": "uint32"
            },
            {
              "internalType": "bytes32",
              "name": "sender",
              "type": "bytes32"
            },
            {
              "internalType": "uint64",
              "name": "nonce",
              "type": "uint64"
            }
          ],
          "internalType": "struct Origin",
          "name": "origin",
          "type": "tuple"
        }
      ],
      "name": "allowInitializePath",
      "outputs": [
        {
          "internalType": "bool",
          "name": "",
          "type": "bool"
        }
      ],
      "stateMutability": "view",
      "type": "function"
    },
    {
      "inputs": [
        {
          "internalType": "uint32",
          "name": "_eid",
          "type": "uint32"
        },
        {
          "internalType": "uint16",
          "name": "_msgType",
          "type": "uint16"
        },
        {
          "internalType": "bytes",
          "name": "_extraOptions",
          "type": "bytes"
        }
      ],
      "name": "combineOptions",
      "outputs": [
        {
          "internalType": "bytes",
          "name": "",
          "type": "bytes"
        }
      ],
      "stateMutability": "view",
      "type": "function"
    },
    {
      "inputs": [
        {
          "internalType": "address",
          "name": "player",
          "type": "address"
        },
        {
          "internalType": "uint256",
          "name": "newPosition",
          "type": "uint256"
        }
      ],
      "name": "computePopulationAfterMove",
      "outputs": [
        {
          "internalType": "uint256",
          "name": "",
          "type": "uint256"
        }
      ],
      "stateMutability": "view",
      "type": "function"
    },
    {
      "inputs": [],
      "name": "endpoint",
      "outputs": [
        {
          "internalType": "contract ILayerZeroEndpointV2",
          "name": "",
          "type": "address"
        }
      ],
      "stateMutability": "view",
      "type": "function"
    },
    {
      "inputs": [
        {
          "internalType": "uint32",
          "name": "eid",
          "type": "uint32"
        },
        {
          "internalType": "uint16",
          "name": "msgType",
          "type": "uint16"
        }
      ],
      "name": "enforcedOptions",
      "outputs": [
        {
          "internalType": "bytes",
          "name": "enforcedOption",
          "type": "bytes"
        }
      ],
      "stateMutability": "view",
      "type": "function"
    },
    {
      "inputs": [
        {
          "components": [
            {
              "internalType": "uint32",
              "name": "srcEid",
              "type": "uint32"
            },
            {
              "internalType": "bytes32",
              "name": "sender",
              "type": "bytes32"
            },
            {
              "internalType": "uint64",
              "name": "nonce",
              "type": "uint64"
            }
          ],
          "internalType": "struct Origin",
          "name": "",
          "type": "tuple"
        },
        {
          "internalType": "bytes",
          "name": "",
          "type": "bytes"
        },
        {
          "internalType": "address",
          "name": "_sender",
          "type": "address"
        }
      ],
      "name": "isComposeMsgSender",
      "outputs": [
        {
          "internalType": "bool",
          "name": "",
          "type": "bool"
        }
      ],
      "stateMutability": "view",
      "type": "function"
    },
    {
      "inputs": [
        {
          "components": [
            {
              "internalType": "uint32",
              "name": "srcEid",
              "type": "uint32"
            },
            {
              "internalType": "bytes32",
              "name": "sender",
              "type": "bytes32"
            },
            {
              "internalType": "uint64",
              "name": "nonce",
              "type": "uint64"
            }
          ],
          "internalType": "struct Origin",
          "name": "_origin",
          "type": "tuple"
        },
        {
          "internalType": "bytes32",
          "name": "_guid",
          "type": "bytes32"
        },
        {
          "internalType": "bytes",
          "name": "_message",
          "type": "bytes"
        },
        {
          "internalType": "address",
          "name": "_executor",
          "type": "address"
        },
        {
          "internalType": "bytes",
          "name": "_extraData",
          "type": "bytes"
        }
      ],
      "name": "lzReceive",
      "outputs": [],
      "stateMutability": "payable",
      "type": "function"
    },
    {
      "inputs": [
        {
          "internalType": "address",
          "name": "player",
          "type": "address"
        },
        {
          "internalType": "uint256",
          "name": "newPosition",
          "type": "uint256"
        }
      ],
      "name": "move",
      "outputs": [],
      "stateMutability": "nonpayable",
      "type": "function"
    },
    {
      "inputs": [
        {
          "internalType": "uint32",
          "name": "",
          "type": "uint32"
        },
        {
          "internalType": "bytes32",
          "name": "",
          "type": "bytes32"
        }
      ],
      "name": "nextNonce",
      "outputs": [
        {
          "internalType": "uint64",
          "name": "nonce",
          "type": "uint64"
        }
      ],
      "stateMutability": "view",
      "type": "function"
    },
    {
      "inputs": [],
      "name": "oAppVersion",
      "outputs": [
        {
          "internalType": "uint64",
          "name": "senderVersion",
          "type": "uint64"
        },
        {
          "internalType": "uint64",
          "name": "receiverVersion",
          "type": "uint64"
        }
      ],
      "stateMutability": "pure",
      "type": "function"
    },
    {
      "inputs": [],
      "name": "owner",
      "outputs": [
        {
          "internalType": "address",
          "name": "",
          "type": "address"
        }
      ],
      "stateMutability": "view",
      "type": "function"
    },
    {
      "inputs": [
        {
          "internalType": "uint32",
          "name": "eid",
          "type": "uint32"
        }
      ],
      "name": "peers",
      "outputs": [
        {
          "internalType": "bytes32",
          "name": "peer",
          "type": "bytes32"
        }
      ],
      "stateMutability": "view",
      "type": "function"
    },
    {
      "inputs": [
        {
          "internalType": "uint32",
          "name": "_dstEid",
          "type": "uint32"
        },
        {
          "internalType": "address",
          "name": "player",
          "type": "address"
        },
        {
          "internalType": "bytes",
          "name": "_options",
          "type": "bytes"
        }
      ],
      "name": "quoteSendHelp",
      "outputs": [
        {
          "components": [
            {
              "internalType": "uint256",
              "name": "nativeFee",
              "type": "uint256"
            },
            {
              "internalType": "uint256",
              "name": "lzTokenFee",
              "type": "uint256"
            }
          ],
          "internalType": "struct MessagingFee",
          "name": "fee",
          "type": "tuple"
        }
      ],
      "stateMutability": "view",
      "type": "function"
    },
    {
      "inputs": [],
      "name": "renounceOwnership",
      "outputs": [],
      "stateMutability": "nonpayable",
      "type": "function"
    },
    {
      "inputs": [
        {
          "internalType": "address",
          "name": "player",
          "type": "address"
        },
        {
          "internalType": "uint32",
          "name": "_dstEid",
          "type": "uint32"
        },
        {
          "internalType": "bytes",
          "name": "_options",
          "type": "bytes"
        }
      ],
      "name": "sendHelp",
      "outputs": [],
      "stateMutability": "payable",
      "type": "function"
    },
    {
      "inputs": [
        {
          "internalType": "address",
          "name": "_delegate",
          "type": "address"
        }
      ],
      "name": "setDelegate",
      "outputs": [],
      "stateMutability": "nonpayable",
      "type": "function"
    },
    {
      "inputs": [
        {
          "components": [
            {
              "internalType": "uint32",
              "name": "eid",
              "type": "uint32"
            },
            {
              "internalType": "uint16",
              "name": "msgType",
              "type": "uint16"
            },
            {
              "internalType": "bytes",
              "name": "options",
              "type": "bytes"
            }
          ],
          "internalType": "struct EnforcedOptionParam[]",
          "name": "_enforcedOptions",
          "type": "tuple[]"
        }
      ],
      "name": "setEnforcedOptions",
      "outputs": [],
      "stateMutability": "nonpayable",
      "type": "function"
    },
    {
      "inputs": [
        {
          "internalType": "uint32",
          "name": "_eid",
          "type": "uint32"
        },
        {
          "internalType": "bytes32",
          "name": "_peer",
          "type": "bytes32"
        }
      ],
      "name": "setPeer",
      "outputs": [],
      "stateMutability": "nonpayable",
      "type": "function"
    },
    {
      "inputs": [
        {
          "internalType": "address",
          "name": "player",
          "type": "address"
        }
      ],
      "name": "start",
      "outputs": [],
      "stateMutability": "nonpayable",
      "type": "function"
    },
    {
      "inputs": [
        {
          "internalType": "address",
          "name": "newOwner",
          "type": "address"
        }
      ],
      "name": "transferOwnership",
      "outputs": [],
      "stateMutability": "nonpayable",
      "type": "function"
    },
    {
      "inputs": [
        {
          "internalType": "address",
          "name": "",
          "type": "address"
        }
      ],
      "name": "tribes",
      "outputs": [
        {
          "internalType": "uint256",
          "name": "position",
          "type": "uint256"
        },
        {
          "internalType": "uint256",
          "name": "population",
          "type": "uint256"
        },
        {
          "internalType": "uint256",
          "name": "timeOfLastMove",
          "type": "uint256"
        }
      ],
      "stateMutability": "view",
      "type": "function"
    },
    {
      "inputs": [
        {
          "components": [
            {
              "internalType": "int16",
              "name": "growthRate",
              "type": "int16"
            }
          ],
          "internalType": "struct Biome[]",
          "name": "_worldmap",
          "type": "tuple[]"
        }
      ],
      "name": "updateBiome",
      "outputs": [],
      "stateMutability": "nonpayable",
      "type": "function"
    },
    {
      "inputs": [
        {
          "internalType": "uint256",
          "name": "",
          "type": "uint256"
        }
      ],
      "name": "worldmap",
      "outputs": [
        {
          "internalType": "int16",
          "name": "growthRate",
          "type": "int16"
        }
      ],
      "stateMutability": "view",
      "type": "function"
    }
  ],
  "transactionHash": "0x99d6664523f56473b5988d706e600a39bca87ee0b97f9b4bb3070a3351af9388",
  "args": [
    "0x1a44076050125825900e736c501f859c50fE728c",
    "0x56faA9652E49AA362AaB1e6050Ba9f130e2c460E",
    [
      {
        "growthRate": 10
      },
      {
        "growthRate": 10
      },
      {
        "growthRate": 10
      },
      {
        "growthRate": 25
      },
      {
        "growthRate": 25
      },
      {
        "growthRate": 26
      },
      {
        "growthRate": 26
      },
      {
        "growthRate": 26
      },
      {
        "growthRate": 27
      },
      {
        "growthRate": 27
      },
      {
        "growthRate": 27
      },
      {
        "growthRate": 28
      },
      {
        "growthRate": 28
      },
      {
        "growthRate": -24
      },
      {
        "growthRate": -24
      },
      {
        "growthRate": -25
      },
      {
        "growthRate": -25
      },
      {
        "growthRate": -25
      },
      {
        "growthRate": -25
      },
      {
        "growthRate": -26
      },
      {
        "growthRate": -26
      },
      {
        "growthRate": -27
      },
      {
        "growthRate": -27
      },
      {
        "growthRate": 27
      },
      {
        "growthRate": 26
      },
      {
        "growthRate": 26
      },
      {
        "growthRate": 26
      },
      {
        "growthRate": 25
      },
      {
        "growthRate": 25
      },
      {
        "growthRate": 24
      },
      {
        "growthRate": 24
      },
      {
        "growthRate": 23
      },
      {
        "growthRate": 23
      },
      {
        "growthRate": -35
      },
      {
        "growthRate": -35
      },
      {
        "growthRate": -36
      },
      {
        "growthRate": -37
      },
      {
        "growthRate": -38
      },
      {
        "growthRate": -39
      },
      {
        "growthRate": -39
      },
      {
        "growthRate": -40
      },
      {
        "growthRate": -41
      },
      {
        "growthRate": -41
      },
      {
        "growthRate": 17
      },
      {
        "growthRate": 16
      },
      {
        "growthRate": 16
      },
      {
        "growthRate": 16
      },
      {
        "growthRate": 15
      },
      {
        "growthRate": 15
      },
      {
        "growthRate": 15
      },
      {
        "growthRate": 15
      },
      {
        "growthRate": 15
      },
      {
        "growthRate": 15
      },
      {
        "growthRate": -46
      },
      {
        "growthRate": -47
      },
      {
        "growthRate": -47
      },
      {
        "growthRate": -47
      },
      {
        "growthRate": -47
      },
      {
        "growthRate": -47
      },
      {
        "growthRate": -47
      },
      {
        "growthRate": -47
      },
      {
        "growthRate": -47
      },
      {
        "growthRate": -47
      },
      {
        "growthRate": 16
      },
      {
        "growthRate": 17
      },
      {
        "growthRate": 17
      },
      {
        "growthRate": 17
      },
      {
        "growthRate": 18
      },
      {
        "growthRate": 18
      },
      {
        "growthRate": 18
      },
      {
        "growthRate": 18
      },
      {
        "growthRate": 19
      },
      {
        "growthRate": 19
      },
      {
        "growthRate": -46
      },
      {
        "growthRate": -46
      },
      {
        "growthRate": -46
      },
      {
        "growthRate": -47
      },
      {
        "growthRate": -47
      },
      {
        "growthRate": -47
      },
      {
        "growthRate": -47
      },
      {
        "growthRate": -47
      },
      {
        "growthRate": -48
      },
      {
        "growthRate": -48
      },
      {
        "growthRate": 19
      },
      {
        "growthRate": 19
      },
      {
        "growthRate": 19
      },
      {
        "growthRate": 18
      },
      {
        "growthRate": 18
      },
      {
        "growthRate": 18
      },
      {
        "growthRate": 17
      },
      {
        "growthRate": 17
      },
      {
        "growthRate": 16
      },
      {
        "growthRate": 16
      },
      {
        "growthRate": -54
      },
      {
        "growthRate": -55
      },
      {
        "growthRate": -56
      },
      {
        "growthRate": -56
      },
      {
        "growthRate": -57
      },
      {
        "growthRate": -58
      },
      {
        "growthRate": -59
      },
      {
        "growthRate": -59
      },
      {
        "growthRate": -60
      },
      {
        "growthRate": -61
      },
      {
        "growthRate": 11
      },
      {
        "growthRate": 10
      },
      {
        "growthRate": 10
      },
      {
        "growthRate": 9
      },
      {
        "growthRate": 9
      },
      {
        "growthRate": 9
      },
      {
        "growthRate": 8
      },
      {
        "growthRate": 8
      },
      {
        "growthRate": 8
      },
      {
        "growthRate": 8
      },
      {
        "growthRate": -66
      },
      {
        "growthRate": -67
      },
      {
        "growthRate": -67
      },
      {
        "growthRate": -67
      },
      {
        "growthRate": -67
      },
      {
        "growthRate": -68
      },
      {
        "growthRate": -68
      },
      {
        "growthRate": -68
      },
      {
        "growthRate": -68
      },
      {
        "growthRate": -68
      },
      {
        "growthRate": 8
      },
      {
        "growthRate": 8
      },
      {
        "growthRate": 9
      },
      {
        "growthRate": 9
      },
      {
        "growthRate": 9
      },
      {
        "growthRate": 9
      },
      {
        "growthRate": 9
      },
      {
        "growthRate": 10
      },
      {
        "growthRate": 10
      },
      {
        "growthRate": 10
      },
      {
        "growthRate": -68
      },
      {
        "growthRate": -68
      },
      {
        "growthRate": -68
      },
      {
        "growthRate": -68
      },
      {
        "growthRate": -68
      },
      {
        "growthRate": -69
      },
      {
        "growthRate": -69
      },
      {
        "growthRate": -69
      },
      {
        "growthRate": -69
      },
      {
        "growthRate": -69
      },
      {
        "growthRate": 11
      },
      {
        "growthRate": 11
      },
      {
        "growthRate": 11
      },
      {
        "growthRate": 10
      },
      {
        "growthRate": 10
      },
      {
        "growthRate": 10
      },
      {
        "growthRate": 10
      },
      {
        "growthRate": 9
      },
      {
        "growthRate": 9
      },
      {
        "growthRate": 9
      },
      {
        "growthRate": -74
      },
      {
        "growthRate": -75
      },
      {
        "growthRate": -76
      },
      {
        "growthRate": -76
      },
      {
        "growthRate": -77
      },
      {
        "growthRate": -77
      },
      {
        "growthRate": -78
      },
      {
        "growthRate": -79
      },
      {
        "growthRate": -79
      },
      {
        "growthRate": -80
      },
      {
        "growthRate": 4
      },
      {
        "growthRate": 4
      },
      {
        "growthRate": 3
      },
      {
        "growthRate": 3
      },
      {
        "growthRate": 3
      },
      {
        "growthRate": 2
      },
      {
        "growthRate": 2
      },
      {
        "growthRate": 2
      },
      {
        "growthRate": 2
      },
      {
        "growthRate": 1
      },
      {
        "growthRate": -86
      },
      {
        "growthRate": -86
      },
      {
        "growthRate": -87
      },
      {
        "growthRate": -87
      },
      {
        "growthRate": -87
      },
      {
        "growthRate": -88
      },
      {
        "growthRate": -88
      },
      {
        "growthRate": -88
      },
      {
        "growthRate": -88
      },
      {
        "growthRate": -89
      },
      {
        "growthRate": 1
      },
      {
        "growthRate": 1
      },
      {
        "growthRate": 1
      },
      {
        "growthRate": 1
      },
      {
        "growthRate": 1
      },
      {
        "growthRate": 1
      },
      {
        "growthRate": 1
      },
      {
        "growthRate": 1
      },
      {
        "growthRate": 1
      },
      {
        "growthRate": 2
      },
      {
        "growthRate": -90
      },
      {
        "growthRate": -90
      },
      {
        "growthRate": -90
      },
      {
        "growthRate": -90
      },
      {
        "growthRate": -90
      },
      {
        "growthRate": -90
      },
      {
        "growthRate": -90
      }
    ]
  ],
  "numDeployments": 6,
  "solcInputHash": "8a92938fd13d171484bb673b3231261b",
  "bytecode": "0x60a06040523480156200001157600080fd5b5060405162002a8a38038062002a8a8339810160408190526200003491620003c9565b82828181806001600160a01b0381166200006857604051631e4fbdf760e01b81526000600482015260240160405180910390fd5b620000738162000121565b506001600160a01b038083166080528116620000a257604051632d618d8160e21b815260040160405180910390fd5b60805160405163ca5eb5e160e01b81526001600160a01b0383811660048301529091169063ca5eb5e190602401600060405180830381600087803b158015620000ea57600080fd5b505af1158015620000ff573d6000803e3d6000fd5b505050505050505062000118816200017160201b60201c565b5050506200057c565b600080546001600160a01b038381166001600160a01b0319831681178455604051919092169283917f8be0079c531659141344cd1fd0a4f28419497f9722a3daafe3b4186f6b6457e09190a35050565b60005b8151811015620001d2576004828281518110620001955762000195620004d4565b60209081029190910181015182546001808201855560009485529290932090519201805461ffff191661ffff909316929092179091550162000174565b50603260005b825181101562000333578251600090620001f3848462000500565b116200020b5762000205838362000500565b6200020e565b83515b905060006200021e83836200051c565b90506000816001600160401b038111156200023d576200023d62000355565b6040519080825280602002602001820160405280156200027f57816020015b6040805160208101909152600081528152602001906001900390816200025c5790505b50905060005b82811015620002df57866200029b828762000500565b81518110620002ae57620002ae620004d4565b6020026020010151828281518110620002cb57620002cb620004d4565b602090810291909101015260010162000285565b50837f653466aad7c2fd7029089ede67f6da5ebc95d3de491dd4b8f86e7694c742d5ae8260405162000312919062000532565b60405180910390a250505081816200032b919062000500565b9050620001d8565b505050565b80516001600160a01b03811681146200035057600080fd5b919050565b634e487b7160e01b600052604160045260246000fd5b604051602081016001600160401b038111828210171562000390576200039062000355565b60405290565b604051601f8201601f191681016001600160401b0381118282101715620003c157620003c162000355565b604052919050565b600080600060608486031215620003df57600080fd5b620003ea8462000338565b92506020620003fb81860162000338565b60408601519093506001600160401b03808211156200041957600080fd5b818701915087601f8301126200042e57600080fd5b81518181111562000443576200044362000355565b8060051b91506200045684830162000396565b818152918301840191848101908a8411156200047157600080fd5b938501935b83851015620004c45785858c0312156200049257600092508283fd5b6200049c6200036b565b925084518060010b8114620004b15760008081fd5b8352828252938501939085019062000476565b8096505050505050509250925092565b634e487b7160e01b600052603260045260246000fd5b634e487b7160e01b600052601160045260246000fd5b80820180821115620005165762000516620004ea565b92915050565b81810381811115620005165762000516620004ea565b6020808252825182820181905260009190848201906040850190845b818110156200057057835151600190810b84529385019392850192016200054e565b50909695505050505050565b6080516124c8620005c26000396000818161033c015281816105d101528181610cc201528181610fc7015281816113e2015281816116bc015261177501526124c86000f3fe60806040526004361061019c5760003560e01c80637d25a05e116100ec578063bb0b6a531161008a578063d2d9b95611610064578063d2d9b9561461054f578063dd0b281e1461056f578063f2fde38b1461058f578063ff7bd03d146105af57600080fd5b8063bb0b6a53146104e2578063bc70b3541461050f578063ca5eb5e11461052f57600080fd5b80638da5cb5b116100c65780638da5cb5b14610449578063987ff31c14610467578063b495b23e14610487578063b98bd070146104c257600080fd5b80637d25a05e146103be57806382413eac146103f95780638bebe8081461042957600080fd5b80633400288b116101595780635535d461116101335780635535d461146102fd5780635e280f111461032a57806365f9f50b14610376578063715018a6146103a957600080fd5b80633400288b1461029d578063460555e6146102bd5780635199ff1d146102dd57600080fd5b806313137d65146101a157806317442b70146101b65780631a71d65b146101dd5780631f5e133414610234578063242d95c61461025c578063255163cf1461028a575b600080fd5b6101b46101af366004611957565b6105cf565b005b3480156101c257600080fd5b50604080516001815260026020820152015b60405180910390f35b3480156101e957600080fd5b506102196101f83660046119f6565b60036020526000908152604090208054600182015460029092015490919083565b604080519384526020840192909252908201526060016101d4565b34801561024057600080fd5b50610249600181565b60405161ffff90911681526020016101d4565b34801561026857600080fd5b5061027c610277366004611a13565b61068f565b6040519081526020016101d4565b6101b4610298366004611a58565b6106c6565b3480156102a957600080fd5b506101b46102b8366004611aba565b610799565b3480156102c957600080fd5b506101b46102d8366004611b89565b6107af565b3480156102e957600080fd5b5061027c6102f8366004611c3d565b6107c3565b34801561030957600080fd5b5061031d610318366004611c71565b6107ff565b6040516101d49190611cf4565b34801561033657600080fd5b5061035e7f000000000000000000000000000000000000000000000000000000000000000081565b6040516001600160a01b0390911681526020016101d4565b34801561038257600080fd5b50610396610391366004611d07565b6108a4565b60405160019190910b81526020016101d4565b3480156103b557600080fd5b506101b46108c8565b3480156103ca57600080fd5b506103e16103d9366004611aba565b600092915050565b6040516001600160401b0390911681526020016101d4565b34801561040557600080fd5b50610419610414366004611d20565b6108dc565b60405190151581526020016101d4565b34801561043557600080fd5b506104196104443660046119f6565b6108f1565b34801561045557600080fd5b506000546001600160a01b031661035e565b34801561047357600080fd5b506101b4610482366004611a13565b61096f565b34801561049357600080fd5b506104a76104a2366004611d86565b610a9b565b604080518251815260209283015192810192909252016101d4565b3480156104ce57600080fd5b506101b46104dd366004611db5565b610ad9565b3480156104ee57600080fd5b5061027c6104fd366004611e29565b60016020526000908152604090205481565b34801561051b57600080fd5b5061031d61052a366004611e44565b610af3565b34801561053b57600080fd5b506101b461054a3660046119f6565b610c9b565b34801561055b57600080fd5b5061027c61056a366004611e71565b610d21565b34801561057b57600080fd5b506101b461058a3660046119f6565b610dcd565b34801561059b57600080fd5b506101b46105aa3660046119f6565b610e8f565b3480156105bb57600080fd5b506104196105ca366004611ea3565b610eca565b7f00000000000000000000000000000000000000000000000000000000000000006001600160a01b0316331461061f576040516391ac5e4f60e01b81523360048201526024015b60405180910390fd5b6020870180359061063990610634908a611e29565b610f00565b146106775761064b6020880188611e29565b60405163309afaf360e21b815263ffffffff909116600482015260208801356024820152604401610616565b61068687878787878787610f3c565b50505050505050565b6001600160a01b0382166000908152600360205260408120600181015490546106bd91906102f89085611ed5565b90505b92915050565b60006106d185610f5d565b905061070184826106e58760018888610af3565b6040518060400160405280348152602001600081525033610f94565b506001600160a01b03851660009081526003602052604090206001015461072a90600290611efe565b6001600160a01b038616600081815260036020908152604091829020600181018590558251815481529182019490945260029093015490830152907f4f66520406df987b0242a38ccfb69c4c16c20e7941038b93d0abec9118e46f9b9060600160405180910390a25050505050565b6107a161109f565b6107ab82826110cc565b5050565b6107b761109f565b6107c081611121565b50565b6000816000036107d45750816106c0565b8260005b838110156107f7576107ed82600460056112c6565b91506001016107d8565b509392505050565b60026020908152600092835260408084209091529082529020805461082390611f20565b80601f016020809104026020016040519081016040528092919081815260200182805461084f90611f20565b801561089c5780601f106108715761010080835404028352916020019161089c565b820191906000526020600020905b81548152906001019060200180831161087f57829003601f168201915b505050505081565b600481815481106108b457600080fd5b60009182526020909120015460010b905081565b6108d061109f565b6108da600061137c565b565b6001600160a01b03811630145b949350505050565b6001600160a01b03811660009081526003602052604081206001810154905460048054849361096893620186a0939192811061092f5761092f611f54565b60009182526020808320909101546001600160a01b0389168352600390915260409091206002015460019190910b9061056a9042611ed5565b1192915050565b6001600160a01b03821660009081526003602052604090205481116109fc5760405162461bcd60e51b815260206004820152603f60248201527f43616e6e6f74206d6f766520746f206120706f736974696f6e206c657373206f60448201527f7220657175616c20746f207468652063757272656e7420706f736974696f6e006064820152608401610616565b6001600160a01b038216600090815260036020526040902081815542600282015560010154610a2f906102f88380611ed5565b6001600160a01b038316600081815260036020908152604091829020600181018590558251815481529182019490945260029093015490830152907fb4fdbe9ea09af31c9db62789db330995e2c5c27af2b59b9e755da617edf99c6b9060600160405180910390a25050565b6040805180820190915260008082526020820152610ad085610abc86610f5d565b610ac98860018888610af3565b60006113cc565b95945050505050565b610ae161109f565b6107ab610aee8284611f6a565b6114a4565b63ffffffff8416600090815260026020908152604080832061ffff87168452909152812080546060929190610b2790611f20565b80601f0160208091040260200160405190810160405280929190818152602001828054610b5390611f20565b8015610ba05780601f10610b7557610100808354040283529160200191610ba0565b820191906000526020600020905b815481529060010190602001808311610b8357829003601f168201915b505050505090508051600003610bf05783838080601f0160208091040260200160405190810160405280939291908181526020018383808284376000920191909152509294506108e99350505050565b6000839003610c005790506108e9565b60028310610c7e57610c4784848080601f0160208091040260200160405190810160405280939291908181526020018383808284376000920191909152506115b692505050565b80610c558460028188612087565b604051602001610c67939291906120b1565b6040516020818303038152906040529150506108e9565b8383604051639a6d49cd60e01b81526004016106169291906120d9565b610ca361109f565b60405163ca5eb5e160e01b81526001600160a01b0382811660048301527f0000000000000000000000000000000000000000000000000000000000000000169063ca5eb5e190602401600060405180830381600087803b158015610d0657600080fd5b505af1158015610d1a573d6000803e3d6000fd5b5050505050565b600081600003610d325750826108e9565b600080841315610d65576000610d518585670de0b6b3a76400006112c6565b9050610d5d8187612108565b915050610db0565b6000841215610dad576000610d8b610d7c8661211b565b85670de0b6b3a76400006112c6565b9050858110610d9d5760009150610da7565b610d5d8187611ed5565b50610db0565b50835b600084138015610dbf57508581115b15610ad057859150506108e9565b610dd6816108f1565b15610e235760405162461bcd60e51b815260206004820152601760248201527f506c6179657220697320616c726561647920616c6976650000000000000000006044820152606401610616565b6001600160a01b03811660008181526003602090815260408083208381554260028201819055606460019092018290558251948552928401528201527fb4fdbe9ea09af31c9db62789db330995e2c5c27af2b59b9e755da617edf99c6b9060600160405180910390a250565b610e9761109f565b6001600160a01b038116610ec157604051631e4fbdf760e01b815260006004820152602401610616565b6107c08161137c565b6000602082018035906001908390610ee29086611e29565b63ffffffff1681526020810191909152604001600020541492915050565b63ffffffff8116600090815260016020526040812054806106c05760405163f6ff4fb760e01b815263ffffffff84166004820152602401610616565b6000610f4886866115e2565b9050610f53816115f0565b5050505050505050565b6001600160a01b03166000908152600360209081526040918290205482518083019190915282518082039092018252820190915290565b610f9c61189b565b6000610fab8460000151611690565b602085015190915015610fc557610fc584602001516116b8565b7f00000000000000000000000000000000000000000000000000000000000000006001600160a01b0316632637a450826040518060a001604052808b63ffffffff1681526020016110158c610f00565b81526020018a815260200189815260200160008960200151111515815250866040518463ffffffff1660e01b8152600401611051929190612137565b60806040518083038185885af115801561106f573d6000803e3d6000fd5b50505050506040513d601f19601f8201168201806040525081019061109491906121fe565b979650505050505050565b6000546001600160a01b031633146108da5760405163118cdaa760e01b8152336004820152602401610616565b63ffffffff8216600081815260016020908152604091829020849055815192835282018390527f238399d427b947898edb290f5ff0f9109849b1c3ba196a42e35f00c50a54b98b910160405180910390a15050565b60005b815181101561117d57600482828151811061114157611141611f54565b60209081029190910181015182546001808201855560009485529290932090519201805461ffff191661ffff9093169290921790915501611124565b50603260005b82518110156112c157825160009061119b8484612108565b116111af576111aa8383612108565b6111b2565b83515b905060006111c08383611ed5565b90506000816001600160401b038111156111dc576111dc611ad6565b60405190808252806020026020018201604052801561121c57816020015b6040805160208101909152600081528152602001906001900390816111fa5790505b50905060005b8281101561127257866112358287612108565b8151811061124557611245611f54565b602002602001015182828151811061125f5761125f611f54565b6020908102919091010152600101611222565b50837f653466aad7c2fd7029089ede67f6da5ebc95d3de491dd4b8f86e7694c742d5ae826040516112a39190612254565b60405180910390a250505081816112ba9190612108565b9050611183565b505050565b60008060006112d5868661179a565b91509150816000036112fa578381816112f0576112f0611ee8565b0492505050611375565b8184116113115761131160038515026011186117b8565b6000848688096000868103871696879004966002600389028118808a02820302808a02820302808a02820302808a02820302808a02820302808a02909103029181900381900460010185841190960395909502919093039390930492909217029150505b9392505050565b600080546001600160a01b038381166001600160a01b0319831681178455604051919092169283917f8be0079c531659141344cd1fd0a4f28419497f9722a3daafe3b4186f6b6457e09190a35050565b60408051808201909152600080825260208201527f00000000000000000000000000000000000000000000000000000000000000006001600160a01b031663ddc28c586040518060a001604052808863ffffffff16815260200161142f89610f00565b8152602001878152602001868152602001851515815250306040518363ffffffff1660e01b8152600401611464929190612137565b6040805180830381865afa158015611480573d6000803e3d6000fd5b505050506040513d601f19601f82011682018060405250810190610ad0919061229c565b60005b815181101561157b576114d68282815181106114c5576114c5611f54565b6020026020010151604001516115b6565b8181815181106114e8576114e8611f54565b6020026020010151604001516002600084848151811061150a5761150a611f54565b60200260200101516000015163ffffffff1663ffffffff168152602001908152602001600020600084848151811061154457611544611f54565b60200260200101516020015161ffff1661ffff16815260200190815260200160002090816115729190612308565b506001016114a7565b507fbe4864a8e820971c0247f5992e2da559595f7bf076a21cb5928d443d2a13b674816040516115ab91906123c7565b60405180910390a150565b600281015161ffff81166003146107ab5781604051639a6d49cd60e01b81526004016106169190611cf4565b60006106bd82840184611d07565b60056004828154811061160557611605611f54565b60009182526020822001805490919061162290849060010b612452565b92506101000a81548161ffff021916908360010b61ffff1602179055506004818154811061165257611652611f54565b600091825260208220015460405160019190910b9183917fc5cf22abfcf02f39af6129daf0951acddd83dcd6a8fd42385b745164d523e0ad9190a350565b60008134146116b4576040516304fb820960e51b8152346004820152602401610616565b5090565b60007f00000000000000000000000000000000000000000000000000000000000000006001600160a01b031663e4fe1d946040518163ffffffff1660e01b8152600401602060405180830381865afa158015611718573d6000803e3d6000fd5b505050506040513d601f19601f8201168201806040525081019061173c9190612475565b90506001600160a01b038116611765576040516329b99a9560e11b815260040160405180910390fd5b6107ab6001600160a01b038216337f0000000000000000000000000000000000000000000000000000000000000000856117ca565b60008060001983850993909202808410938190039390930393915050565b634e487b71600052806020526024601cfd5b604080516001600160a01b0385811660248301528416604482015260648082018490528251808303909101815260849091019091526020810180516001600160e01b03166323b872dd60e01b17905261182490859061182a565b50505050565b600080602060008451602086016000885af18061184d576040513d6000823e3d81fd5b50506000513d91508115611865578060011415611872565b6001600160a01b0384163b155b1561182457604051635274afe760e01b81526001600160a01b0385166004820152602401610616565b60405180606001604052806000801916815260200160006001600160401b031681526020016118dd604051806040016040528060008152602001600081525090565b905290565b6000606082840312156118f457600080fd5b50919050565b60008083601f84011261190c57600080fd5b5081356001600160401b0381111561192357600080fd5b60208301915083602082850101111561193b57600080fd5b9250929050565b6001600160a01b03811681146107c057600080fd5b600080600080600080600060e0888a03121561197257600080fd5b61197c89896118e2565b96506060880135955060808801356001600160401b038082111561199f57600080fd5b6119ab8b838c016118fa565b909750955060a08a013591506119c082611942565b90935060c089013590808211156119d657600080fd5b506119e38a828b016118fa565b989b979a50959850939692959293505050565b600060208284031215611a0857600080fd5b813561137581611942565b60008060408385031215611a2657600080fd5b8235611a3181611942565b946020939093013593505050565b803563ffffffff81168114611a5357600080fd5b919050565b60008060008060608587031215611a6e57600080fd5b8435611a7981611942565b9350611a8760208601611a3f565b925060408501356001600160401b03811115611aa257600080fd5b611aae878288016118fa565b95989497509550505050565b60008060408385031215611acd57600080fd5b611a3183611a3f565b634e487b7160e01b600052604160045260246000fd5b604051602081016001600160401b0381118282101715611b0e57611b0e611ad6565b60405290565b604051606081016001600160401b0381118282101715611b0e57611b0e611ad6565b604051601f8201601f191681016001600160401b0381118282101715611b5e57611b5e611ad6565b604052919050565b60006001600160401b03821115611b7f57611b7f611ad6565b5060051b60200190565b60006020808385031215611b9c57600080fd5b82356001600160401b03811115611bb257600080fd5b8301601f81018513611bc357600080fd5b8035611bd6611bd182611b66565b611b36565b81815260059190911b82018301908381019087831115611bf557600080fd5b928401925b8284101561109457848489031215611c125760008081fd5b611c1a611aec565b84358060010b8114611c2c5760008081fd5b815282529284019290840190611bfa565b60008060408385031215611c5057600080fd5b50508035926020909101359150565b803561ffff81168114611a5357600080fd5b60008060408385031215611c8457600080fd5b611c8d83611a3f565b9150611c9b60208401611c5f565b90509250929050565b60005b83811015611cbf578181015183820152602001611ca7565b50506000910152565b60008151808452611ce0816020860160208601611ca4565b601f01601f19169290920160200192915050565b6020815260006106bd6020830184611cc8565b600060208284031215611d1957600080fd5b5035919050565b60008060008060a08587031215611d3657600080fd5b611d4086866118e2565b935060608501356001600160401b03811115611d5b57600080fd5b611d67878288016118fa565b9094509250506080850135611d7b81611942565b939692955090935050565b60008060008060608587031215611d9c57600080fd5b611da585611a3f565b93506020850135611a8781611942565b60008060208385031215611dc857600080fd5b82356001600160401b0380821115611ddf57600080fd5b818501915085601f830112611df357600080fd5b813581811115611e0257600080fd5b8660208260051b8501011115611e1757600080fd5b60209290920196919550909350505050565b600060208284031215611e3b57600080fd5b6106bd82611a3f565b60008060008060608587031215611e5a57600080fd5b611e6385611a3f565b9350611a8760208601611c5f565b60008060008060808587031215611e8757600080fd5b5050823594602084013594506040840135936060013592509050565b600060608284031215611eb557600080fd5b6106bd83836118e2565b634e487b7160e01b600052601160045260246000fd5b818103818111156106c0576106c0611ebf565b634e487b7160e01b600052601260045260246000fd5b600082611f1b57634e487b7160e01b600052601260045260246000fd5b500490565b600181811c90821680611f3457607f821691505b6020821081036118f457634e487b7160e01b600052602260045260246000fd5b634e487b7160e01b600052603260045260246000fd5b6000611f78611bd184611b66565b80848252602080830192508560051b850136811115611f9657600080fd5b855b8181101561207b5780356001600160401b0380821115611fb85760008081fd5b818901915060608236031215611fce5760008081fd5b611fd6611b14565b611fdf83611a3f565b8152611fec868401611c5f565b86820152604080840135838111156120045760008081fd5b9390930192601f368186011261201a5760008081fd5b84358481111561202c5761202c611ad6565b61203d818301601f19168a01611b36565b9450808552368982880101111561205657600091508182fd5b808987018a870137600090850189015250810191909152865250938201938201611f98565b50919695505050505050565b6000808585111561209757600080fd5b838611156120a457600080fd5b5050820193919092039150565b600084516120c3818460208901611ca4565b8201838582376000930192835250909392505050565b60208152816020820152818360408301376000818301604090810191909152601f909201601f19160101919050565b808201808211156106c0576106c0611ebf565b6000600160ff1b820161213057612130611ebf565b5060000390565b6040815263ffffffff8351166040820152602083015160608201526000604084015160a0608084015261216d60e0840182611cc8565b90506060850151603f198483030160a085015261218a8282611cc8565b60809690960151151560c08501525050506001600160a01b039190911660209091015290565b6000604082840312156121c257600080fd5b604051604081018181106001600160401b03821117156121e4576121e4611ad6565b604052825181526020928301519281019290925250919050565b60006080828403121561221057600080fd5b612218611b14565b8251815260208301516001600160401b038116811461223657600080fd5b602082015261224884604085016121b0565b60408201529392505050565b6020808252825182820181905260009190848201906040850190845b8181101561229057835151600190810b8452938501939285019201612270565b50909695505050505050565b6000604082840312156122ae57600080fd5b6106bd83836121b0565b601f8211156112c1576000816000526020600020601f850160051c810160208610156122e15750805b601f850160051c820191505b81811015612300578281556001016122ed565b505050505050565b81516001600160401b0381111561232157612321611ad6565b6123358161232f8454611f20565b846122b8565b602080601f83116001811461236a57600084156123525750858301515b600019600386901b1c1916600185901b178555612300565b600085815260208120601f198616915b828110156123995788860151825594840194600190910190840161237a565b50858210156123b75787850151600019600388901b60f8161c191681555b5050505050600190811b01905550565b600060208083018184528085518083526040925060408601915060408160051b87010184880160005b8381101561244457888303603f190185528151805163ffffffff1684528781015161ffff1688850152860151606087850181905261243081860183611cc8565b9689019694505050908601906001016123f0565b509098975050505050505050565b600181810b9083900b01617fff8113617fff19821217156106c0576106c0611ebf565b60006020828403121561248757600080fd5b81516113758161194256fea26469706673582212208d1dbbc700c90859709354a42ed32b905a7e3d395e5a485e2575a022961698be64736f6c63430008160033",
  "devdoc": {
    "errors": {
      "OwnableInvalidOwner(address)": [
        {
          "details": "The owner is not a valid owner account. (eg. `address(0)`)"
        }
      ],
      "OwnableUnauthorizedAccount(address)": [
        {
          "details": "The caller account is not authorized to perform an operation."
        }
      ],
      "SafeERC20FailedOperation(address)": [
        {
          "details": "An operation with an ERC-20 token failed."
        }
      ]
    },
    "kind": "dev",
    "methods": {
      "allowInitializePath((uint32,bytes32,uint64))": {
        "details": "This indicates to the endpoint that the OApp has enabled msgs for this particular path to be received.This defaults to assuming if a peer has been set, its initialized. Can be overridden by the OApp if there is other logic to determine this.",
        "params": {
          "origin": "The origin information containing the source endpoint and sender address."
        },
        "returns": {
          "_0": "Whether the path has been initialized."
        }
      },
      "combineOptions(uint32,uint16,bytes)": {
        "details": "If there is an enforced lzReceive option: - {gasLimit: 200k, msg.value: 1 ether} AND a caller supplies a lzReceive option: {gasLimit: 100k, msg.value: 0.5 ether} - The resulting options will be {gasLimit: 300k, msg.value: 1.5 ether} when the message is executed on the remote lzReceive() function.This presence of duplicated options is handled off-chain in the verifier/executor.",
        "params": {
          "_eid": "The endpoint ID.",
          "_extraOptions": "Additional options passed by the caller.",
          "_msgType": "The OAPP message type."
        },
        "returns": {
          "_0": "options The combination of caller specified options AND enforced options."
        }
      },
      "constructor": {
        "params": {
          "_endpoint": "The local chain's LayerZero Endpoint V2 address",
          "_owner": "The address permitted to configure this OApp",
          "_worldmap": "The map of biomes"
        }
      },
      "isComposeMsgSender((uint32,bytes32,uint64),bytes,address)": {
        "details": "_origin The origin information containing the source endpoint and sender address.  - srcEid: The source chain endpoint ID.  - sender: The sender address on the src chain.  - nonce: The nonce of the message._message The lzReceive payload.Applications can optionally choose to implement separate composeMsg senders that are NOT the bridging layer.The default sender IS the OAppReceiver implementer.",
        "params": {
          "_sender": "The sender address."
        },
        "returns": {
          "_0": "isSender Is a valid sender."
        }
      },
      "lzReceive((uint32,bytes32,uint64),bytes32,bytes,address,bytes)": {
        "details": "Entry point for receiving messages or packets from the endpoint.Entry point for receiving msg/packet from the LayerZero endpoint.",
        "params": {
          "_executor": "The address of the executor for the received message.",
          "_extraData": "Additional arbitrary data provided by the corresponding executor.",
          "_guid": "The unique identifier for the received LayerZero message.",
          "_message": "The payload of the received message.",
          "_origin": "The origin information containing the source endpoint and sender address.  - srcEid: The source chain endpoint ID.  - sender: The sender address on the src chain.  - nonce: The nonce of the message."
        }
      },
      "nextNonce(uint32,bytes32)": {
        "details": "_srcEid The source endpoint ID._sender The sender address.The path nonce starts from 1. If 0 is returned it means that there is NO nonce ordered enforcement.Is required by the off-chain executor to determine the OApp expects msg execution is ordered.This is also enforced by the OApp.By default this is NOT enabled. ie. nextNonce is hardcoded to return 0.",
        "returns": {
          "nonce": "The next nonce."
        }
      },
      "oAppVersion()": {
        "returns": {
          "receiverVersion": "The version of the OAppReceiver.sol implementation.",
          "senderVersion": "The version of the OAppSender.sol implementation."
        }
      },
      "owner()": {
        "details": "Returns the address of the current owner."
      },
      "quoteSendHelp(uint32,address,bytes)": {
        "params": {
          "_dstEid": "Destination chain's endpoint ID.",
          "_options": "Message execution options (e.g., for sending gas to destination).",
          "player": "The player to send help to."
        },
        "returns": {
          "fee": "A `MessagingFee` struct containing the calculated gas fee in either the native token or ZRO token."
        }
      },
      "renounceOwnership()": {
        "details": "Leaves the contract without owner. It will not be possible to call `onlyOwner` functions. Can only be called by the current owner. NOTE: Renouncing ownership will leave the contract without an owner, thereby disabling any functionality that is only available to the owner."
      },
      "sendHelp(address,uint32,bytes)": {
        "params": {
          "_dstEid": "Destination Endpoint ID (uint32)",
          "_options": "Execution options for gas on the destination (bytes)"
        }
      },
      "setDelegate(address)": {
        "details": "Only the owner/admin of the OApp can call this function.Provides the ability for a delegate to set configs, on behalf of the OApp, directly on the Endpoint contract.",
        "params": {
          "_delegate": "The address of the delegate to be set."
        }
      },
      "setEnforcedOptions((uint32,uint16,bytes)[])": {
        "details": "Sets the enforced options for specific endpoint and message type combinations.Only the owner/admin of the OApp can call this function.Provides a way for the OApp to enforce things like paying for PreCrime, AND/OR minimum dst lzReceive gas amounts etc.These enforced options can vary as the potential options/execution on the remote may differ as per the msgType. eg. Amount of lzReceive() gas necessary to deliver a lzCompose() message adds overhead you dont want to pay if you are only making a standard LayerZero message ie. lzReceive() WITHOUT sendCompose().",
        "params": {
          "_enforcedOptions": "An array of EnforcedOptionParam structures specifying enforced options."
        }
      },
      "setPeer(uint32,bytes32)": {
        "details": "Only the owner/admin of the OApp can call this function.Indicates that the peer is trusted to send LayerZero messages to this OApp.Set this to bytes32(0) to remove the peer address.Peer is a bytes32 to accommodate non-evm chains.",
        "params": {
          "_eid": "The endpoint ID.",
          "_peer": "The address of the peer to be associated with the corresponding endpoint."
        }
      },
      "transferOwnership(address)": {
        "details": "Transfers ownership of the contract to a new account (`newOwner`). Can only be called by the current owner."
      }
    },
    "version": 1
  },
  "userdoc": {
    "kind": "user",
    "methods": {
      "SEND()": {
        "notice": "Msg type for sending a string, for use in OAppOptionsType3 as an enforced option"
      },
      "allowInitializePath((uint32,bytes32,uint64))": {
        "notice": "Checks if the path initialization is allowed based on the provided origin."
      },
      "combineOptions(uint32,uint16,bytes)": {
        "notice": "Combines options for a given endpoint and message type."
      },
      "constructor": {
        "notice": "Initialize with Endpoint V2 and owner address"
      },
      "endpoint()": {
        "notice": "Retrieves the LayerZero endpoint associated with the OApp."
      },
      "isComposeMsgSender((uint32,bytes32,uint64),bytes,address)": {
        "notice": "Indicates whether an address is an approved composeMsg sender to the Endpoint."
      },
      "nextNonce(uint32,bytes32)": {
        "notice": "Retrieves the next nonce for a given source endpoint and sender address."
      },
      "oAppVersion()": {
        "notice": "Retrieves the OApp version information."
      },
      "peers(uint32)": {
        "notice": "Retrieves the peer (OApp) associated with a corresponding endpoint."
      },
      "quoteSendHelp(uint32,address,bytes)": {
        "notice": "Quotes the gas needed to pay for the full omnichain transaction in native gas or ZRO token."
      },
      "sendHelp(address,uint32,bytes)": {
        "notice": "Send a string to a remote OApp on another chain"
      },
      "setDelegate(address)": {
        "notice": "Sets the delegate address for the OApp."
      },
      "setPeer(uint32,bytes32)": {
        "notice": "Sets the peer address (OApp instance) for a corresponding endpoint."
      }
    },
    "version": 1
  },
  "storageLayout": {
    "storage": [
      {
        "astId": 1533,
        "contract": "contracts/ChainWalkerWorld.sol:ChainWalkerWorld",
        "label": "_owner",
        "offset": 0,
        "slot": "0",
        "type": "t_address"
      },
      {
        "astId": 785,
        "contract": "contracts/ChainWalkerWorld.sol:ChainWalkerWorld",
        "label": "peers",
        "offset": 0,
        "slot": "1",
        "type": "t_mapping(t_uint32,t_bytes32)"
      },
      {
        "astId": 1381,
        "contract": "contracts/ChainWalkerWorld.sol:ChainWalkerWorld",
        "label": "enforcedOptions",
        "offset": 0,
        "slot": "2",
        "type": "t_mapping(t_uint32,t_mapping(t_uint16,t_bytes_storage))"
      },
      {
        "astId": 5817,
        "contract": "contracts/ChainWalkerWorld.sol:ChainWalkerWorld",
        "label": "tribes",
        "offset": 0,
        "slot": "3",
        "type": "t_mapping(t_address,t_struct(Tribe)5803_storage)"
      },
      {
        "astId": 5849,
        "contract": "contracts/ChainWalkerWorld.sol:ChainWalkerWorld",
        "label": "worldmap",
        "offset": 0,
        "slot": "4",
        "type": "t_array(t_struct(Biome)5806_storage)dyn_storage"
      }
    ],
    "types": {
      "t_address": {
        "encoding": "inplace",
        "label": "address",
        "numberOfBytes": "20"
      },
      "t_array(t_struct(Biome)5806_storage)dyn_storage": {
        "base": "t_struct(Biome)5806_storage",
        "encoding": "dynamic_array",
        "label": "struct Biome[]",
        "numberOfBytes": "32"
      },
      "t_bytes32": {
        "encoding": "inplace",
        "label": "bytes32",
        "numberOfBytes": "32"
      },
      "t_bytes_storage": {
        "encoding": "bytes",
        "label": "bytes",
        "numberOfBytes": "32"
      },
      "t_int16": {
        "encoding": "inplace",
        "label": "int16",
        "numberOfBytes": "2"
      },
      "t_mapping(t_address,t_struct(Tribe)5803_storage)": {
        "encoding": "mapping",
        "key": "t_address",
        "label": "mapping(address => struct Tribe)",
        "numberOfBytes": "32",
        "value": "t_struct(Tribe)5803_storage"
      },
      "t_mapping(t_uint16,t_bytes_storage)": {
        "encoding": "mapping",
        "key": "t_uint16",
        "label": "mapping(uint16 => bytes)",
        "numberOfBytes": "32",
        "value": "t_bytes_storage"
      },
      "t_mapping(t_uint32,t_bytes32)": {
        "encoding": "mapping",
        "key": "t_uint32",
        "label": "mapping(uint32 => bytes32)",
        "numberOfBytes": "32",
        "value": "t_bytes32"
      },
      "t_mapping(t_uint32,t_mapping(t_uint16,t_bytes_storage))": {
        "encoding": "mapping",
        "key": "t_uint32",
        "label": "mapping(uint32 => mapping(uint16 => bytes))",
        "numberOfBytes": "32",
        "value": "t_mapping(t_uint16,t_bytes_storage)"
      },
      "t_struct(Biome)5806_storage": {
        "encoding": "inplace",
        "label": "struct Biome",
        "members": [
          {
            "astId": 5805,
            "contract": "contracts/ChainWalkerWorld.sol:ChainWalkerWorld",
            "label": "growthRate",
            "offset": 0,
            "slot": "0",
            "type": "t_int16"
          }
        ],
        "numberOfBytes": "32"
      },
      "t_struct(Tribe)5803_storage": {
        "encoding": "inplace",
        "label": "struct Tribe",
        "members": [
          {
            "astId": 5798,
            "contract": "contracts/ChainWalkerWorld.sol:ChainWalkerWorld",
            "label": "position",
            "offset": 0,
            "slot": "0",
            "type": "t_uint256"
          },
          {
            "astId": 5800,
            "contract": "contracts/ChainWalkerWorld.sol:ChainWalkerWorld",
            "label": "population",
            "offset": 0,
            "slot": "1",
            "type": "t_uint256"
          },
          {
            "astId": 5802,
            "contract": "contracts/ChainWalkerWorld.sol:ChainWalkerWorld",
            "label": "timeOfLastMove",
            "offset": 0,
            "slot": "2",
            "type": "t_uint256"
          }
        ],
        "numberOfBytes": "96"
      },
      "t_uint16": {
        "encoding": "inplace",
        "label": "uint16",
        "numberOfBytes": "2"
      },
      "t_uint256": {
        "encoding": "inplace",
        "label": "uint256",
        "numberOfBytes": "32"
      },
      "t_uint32": {
        "encoding": "inplace",
        "label": "uint32",
        "numberOfBytes": "4"
      }
    }
  }
}